{
  "_format": "hh-sol-artifact-1",
  "contractName": "CryptoBaby",
  "sourceName": "contracts/CryptoBaby.sol",
  "abi": [
    {
      "inputs": [],
      "stateMutability": "nonpayable",
      "type": "constructor"
    },
    {
      "anonymous": false,
      "inputs": [
        {
          "indexed": true,
          "internalType": "address",
          "name": "owner",
          "type": "address"
        },
        {
          "indexed": true,
          "internalType": "address",
          "name": "approved",
          "type": "address"
        },
        {
          "indexed": true,
          "internalType": "uint256",
          "name": "tokenId",
          "type": "uint256"
        }
      ],
      "name": "Approval",
      "type": "event"
    },
    {
      "anonymous": false,
      "inputs": [
        {
          "indexed": true,
          "internalType": "address",
          "name": "owner",
          "type": "address"
        },
        {
          "indexed": true,
          "internalType": "address",
          "name": "operator",
          "type": "address"
        },
        {
          "indexed": false,
          "internalType": "bool",
          "name": "approved",
          "type": "bool"
        }
      ],
      "name": "ApprovalForAll",
      "type": "event"
    },
    {
      "anonymous": false,
      "inputs": [
        {
          "indexed": true,
          "internalType": "address",
          "name": "previousOwner",
          "type": "address"
        },
        {
          "indexed": true,
          "internalType": "address",
          "name": "newOwner",
          "type": "address"
        }
      ],
      "name": "OwnershipTransferred",
      "type": "event"
    },
    {
      "anonymous": false,
      "inputs": [
        {
          "indexed": true,
          "internalType": "address",
          "name": "from",
          "type": "address"
        },
        {
          "indexed": true,
          "internalType": "address",
          "name": "to",
          "type": "address"
        },
        {
          "indexed": true,
          "internalType": "uint256",
          "name": "tokenId",
          "type": "uint256"
        }
      ],
      "name": "Transfer",
      "type": "event"
    },
    {
      "inputs": [
        {
          "internalType": "address[]",
          "name": "addresses",
          "type": "address[]"
        }
      ],
      "name": "addToWhitelist",
      "outputs": [],
      "stateMutability": "nonpayable",
      "type": "function"
    },
    {
      "inputs": [
        {
          "internalType": "address",
          "name": "recipient",
          "type": "address"
        },
        {
          "internalType": "uint256",
          "name": "tokenId",
          "type": "uint256"
        }
      ],
      "name": "airdropNFT",
      "outputs": [],
      "stateMutability": "nonpayable",
      "type": "function"
    },
    {
      "inputs": [
        {
          "internalType": "address",
          "name": "to",
          "type": "address"
        },
        {
          "internalType": "uint256",
          "name": "tokenId",
          "type": "uint256"
        }
      ],
      "name": "approve",
      "outputs": [],
      "stateMutability": "nonpayable",
      "type": "function"
    },
    {
      "inputs": [
        {
          "internalType": "address",
          "name": "owner",
          "type": "address"
        }
      ],
      "name": "balanceOf",
      "outputs": [
        {
          "internalType": "uint256",
          "name": "",
          "type": "uint256"
        }
      ],
      "stateMutability": "view",
      "type": "function"
    },
    {
      "inputs": [
        {
          "internalType": "address",
          "name": "addr",
          "type": "address"
        }
      ],
      "name": "checkInWhiteList",
      "outputs": [
        {
          "internalType": "bool",
          "name": "",
          "type": "bool"
        }
      ],
      "stateMutability": "view",
      "type": "function"
    },
    {
      "inputs": [],
      "name": "ethMinPrice",
      "outputs": [
        {
          "internalType": "uint256",
          "name": "",
          "type": "uint256"
        }
      ],
      "stateMutability": "view",
      "type": "function"
    },
    {
      "inputs": [],
      "name": "ethWhitePrice",
      "outputs": [
        {
          "internalType": "uint256",
          "name": "",
          "type": "uint256"
        }
      ],
      "stateMutability": "view",
      "type": "function"
    },
    {
      "inputs": [
        {
          "internalType": "uint256",
          "name": "tokenId",
          "type": "uint256"
        }
      ],
      "name": "getApproved",
      "outputs": [
        {
          "internalType": "address",
          "name": "",
          "type": "address"
        }
      ],
      "stateMutability": "view",
      "type": "function"
    },
    {
      "inputs": [],
      "name": "getMintPrice",
      "outputs": [
        {
          "internalType": "uint256",
          "name": "",
          "type": "uint256"
        }
      ],
      "stateMutability": "view",
      "type": "function"
    },
    {
      "inputs": [],
      "name": "getWhiteMintPrice",
      "outputs": [
        {
          "internalType": "uint256",
          "name": "",
          "type": "uint256"
        }
      ],
      "stateMutability": "view",
      "type": "function"
    },
    {
      "inputs": [
        {
          "internalType": "address",
          "name": "owner",
          "type": "address"
        },
        {
          "internalType": "address",
          "name": "operator",
          "type": "address"
        }
      ],
      "name": "isApprovedForAll",
      "outputs": [
        {
          "internalType": "bool",
          "name": "",
          "type": "bool"
        }
      ],
      "stateMutability": "view",
      "type": "function"
    },
    {
      "inputs": [],
      "name": "isMintEnabled",
      "outputs": [
        {
          "internalType": "bool",
          "name": "",
          "type": "bool"
        }
      ],
      "stateMutability": "view",
      "type": "function"
    },
    {
      "inputs": [],
      "name": "isPublicMintEnabled",
      "outputs": [
        {
          "internalType": "bool",
          "name": "",
          "type": "bool"
        }
      ],
      "stateMutability": "view",
      "type": "function"
    },
    {
      "inputs": [],
      "name": "isSaleOpen",
      "outputs": [
        {
          "internalType": "bool",
          "name": "",
          "type": "bool"
        }
      ],
      "stateMutability": "view",
      "type": "function"
    },
    {
      "inputs": [],
      "name": "maxSupply",
      "outputs": [
        {
          "internalType": "uint256",
          "name": "",
          "type": "uint256"
        }
      ],
      "stateMutability": "view",
      "type": "function"
    },
    {
      "inputs": [],
      "name": "maxWalletCount",
      "outputs": [
        {
          "internalType": "uint256",
          "name": "",
          "type": "uint256"
        }
      ],
      "stateMutability": "view",
      "type": "function"
    },
    {
      "inputs": [],
      "name": "name",
      "outputs": [
        {
          "internalType": "string",
          "name": "",
          "type": "string"
        }
      ],
      "stateMutability": "view",
      "type": "function"
    },
    {
      "inputs": [],
      "name": "owner",
      "outputs": [
        {
          "internalType": "address",
          "name": "",
          "type": "address"
        }
      ],
      "stateMutability": "view",
      "type": "function"
    },
    {
      "inputs": [
        {
          "internalType": "uint256",
          "name": "tokenId",
          "type": "uint256"
        }
      ],
      "name": "ownerOf",
      "outputs": [
        {
          "internalType": "address",
          "name": "",
          "type": "address"
        }
      ],
      "stateMutability": "view",
      "type": "function"
    },
    {
      "inputs": [
        {
          "internalType": "uint256",
          "name": "requestedCount",
          "type": "uint256"
        }
      ],
      "name": "publicMint",
      "outputs": [],
      "stateMutability": "payable",
      "type": "function"
    },
    {
      "inputs": [
        {
          "internalType": "address[]",
          "name": "addresses",
          "type": "address[]"
        }
      ],
      "name": "removeFromWhiteList",
      "outputs": [],
      "stateMutability": "nonpayable",
      "type": "function"
    },
    {
      "inputs": [],
      "name": "renounceOwnership",
      "outputs": [],
      "stateMutability": "nonpayable",
      "type": "function"
    },
    {
      "inputs": [
        {
          "internalType": "address",
          "name": "from",
          "type": "address"
        },
        {
          "internalType": "address",
          "name": "to",
          "type": "address"
        },
        {
          "internalType": "uint256",
          "name": "tokenId",
          "type": "uint256"
        }
      ],
      "name": "safeTransferFrom",
      "outputs": [],
      "stateMutability": "nonpayable",
      "type": "function"
    },
    {
      "inputs": [
        {
          "internalType": "address",
          "name": "from",
          "type": "address"
        },
        {
          "internalType": "address",
          "name": "to",
          "type": "address"
        },
        {
          "internalType": "uint256",
          "name": "tokenId",
          "type": "uint256"
        },
        {
          "internalType": "bytes",
          "name": "_data",
          "type": "bytes"
        }
      ],
      "name": "safeTransferFrom",
      "outputs": [],
      "stateMutability": "nonpayable",
      "type": "function"
    },
    {
      "inputs": [
        {
          "internalType": "address",
          "name": "operator",
          "type": "address"
        },
        {
          "internalType": "bool",
          "name": "approved",
          "type": "bool"
        }
      ],
      "name": "setApprovalForAll",
      "outputs": [],
      "stateMutability": "nonpayable",
      "type": "function"
    },
    {
      "inputs": [
        {
          "internalType": "string",
          "name": "_newBaseURI",
          "type": "string"
        }
      ],
      "name": "setBaseURI",
      "outputs": [],
      "stateMutability": "nonpayable",
      "type": "function"
    },
    {
      "inputs": [
        {
          "internalType": "uint256",
          "name": "_maxSupply",
          "type": "uint256"
        }
      ],
      "name": "setMaxSupply",
      "outputs": [],
      "stateMutability": "nonpayable",
      "type": "function"
    },
    {
      "inputs": [
        {
          "internalType": "uint256",
          "name": "_maxWallet",
          "type": "uint256"
        }
      ],
      "name": "setMaxWalletCount",
      "outputs": [],
      "stateMutability": "nonpayable",
      "type": "function"
    },
    {
      "inputs": [
        {
          "internalType": "bool",
          "name": "_isEnabled",
          "type": "bool"
        }
      ],
      "name": "setMintEnabled",
      "outputs": [],
      "stateMutability": "nonpayable",
      "type": "function"
    },
    {
      "inputs": [
        {
          "internalType": "uint256",
          "name": "_price",
          "type": "uint256"
        }
      ],
      "name": "setPriceInWei",
      "outputs": [],
      "stateMutability": "nonpayable",
      "type": "function"
    },
    {
      "inputs": [
        {
          "internalType": "bool",
          "name": "_isEnabled",
          "type": "bool"
        }
      ],
      "name": "setPublicMintEnabled",
      "outputs": [],
      "stateMutability": "nonpayable",
      "type": "function"
    },
    {
      "inputs": [
        {
          "internalType": "bool",
          "name": "_isSaleOpen",
          "type": "bool"
        }
      ],
      "name": "setSaleOpen",
      "outputs": [],
      "stateMutability": "nonpayable",
      "type": "function"
    },
    {
      "inputs": [
        {
          "internalType": "bytes4",
          "name": "interfaceId",
          "type": "bytes4"
        }
      ],
      "name": "supportsInterface",
      "outputs": [
        {
          "internalType": "bool",
          "name": "",
          "type": "bool"
        }
      ],
      "stateMutability": "view",
      "type": "function"
    },
    {
      "inputs": [],
      "name": "symbol",
      "outputs": [
        {
          "internalType": "string",
          "name": "",
          "type": "string"
        }
      ],
      "stateMutability": "view",
      "type": "function"
    },
    {
      "inputs": [
        {
          "internalType": "uint256",
          "name": "tokenId",
          "type": "uint256"
        }
      ],
      "name": "tokenURI",
      "outputs": [
        {
          "internalType": "string",
          "name": "",
          "type": "string"
        }
      ],
      "stateMutability": "view",
      "type": "function"
    },
    {
      "inputs": [],
      "name": "totalMint",
      "outputs": [
        {
          "internalType": "uint256",
          "name": "",
          "type": "uint256"
        }
      ],
      "stateMutability": "view",
      "type": "function"
    },
    {
      "inputs": [],
      "name": "totalSupply",
      "outputs": [
        {
          "internalType": "uint256",
          "name": "",
          "type": "uint256"
        }
      ],
      "stateMutability": "view",
      "type": "function"
    },
    {
      "inputs": [
        {
          "internalType": "address",
          "name": "from",
          "type": "address"
        },
        {
          "internalType": "address",
          "name": "to",
          "type": "address"
        },
        {
          "internalType": "uint256",
          "name": "tokenId",
          "type": "uint256"
        }
      ],
      "name": "transferFrom",
      "outputs": [],
      "stateMutability": "nonpayable",
      "type": "function"
    },
    {
      "inputs": [
        {
          "internalType": "address",
          "name": "newOwner",
          "type": "address"
        }
      ],
      "name": "transferOwnership",
      "outputs": [],
      "stateMutability": "nonpayable",
      "type": "function"
    },
    {
      "inputs": [
        {
          "internalType": "uint256[]",
          "name": "tokenIds",
          "type": "uint256[]"
        }
      ],
      "name": "whiteListMint",
      "outputs": [],
      "stateMutability": "payable",
      "type": "function"
    }
  ],
  "bytecode": "0x66b1a2bc2ec5000060095566470de4df820000600a9081556103e8600c55600d55600e805462ffffff191661010017905560a06040819052600060808190526200004c91600f916200014a565b50610e1060105560016011553480156200006557600080fd5b50604080518082018252600b81526a43727970746f206261627960a81b60208083019182528351808501909452600a84526943525950544f4241425960b01b908401528151919291620000bb916000916200014a565b508051620000d19060019060208401906200014a565b505050620000ee620000e8620000f460201b60201c565b620000f8565b6200022d565b3390565b600780546001600160a01b038381166001600160a01b0319831681179093556040519116919082907f8be0079c531659141344cd1fd0a4f28419497f9722a3daafe3b4186f6b6457e090600090a35050565b8280546200015890620001f0565b90600052602060002090601f0160209004810192826200017c5760008555620001c7565b82601f106200019757805160ff1916838001178555620001c7565b82800160010185558215620001c7579182015b82811115620001c7578251825591602001919060010190620001aa565b50620001d5929150620001d9565b5090565b5b80821115620001d55760008155600101620001da565b600181811c908216806200020557607f821691505b602082108114156200022757634e487b7160e01b600052602260045260246000fd5b50919050565b612d0f806200023d6000396000f3fe6080604052600436106102bb5760003560e01c806370a082311161016e578063a7f93ebd116100cb578063c87b56dd1161007f578063e985e9c511610064578063e985e9c514610713578063f2fde38b1461075c578063f46a04eb1461077c57600080fd5b8063c87b56dd146106dd578063d5abeb01146106fd57600080fd5b8063af979f25116100b0578063af979f251461067d578063b11560c51461069d578063b88d4fde146106bd57600080fd5b8063a7f93ebd14610648578063ac4442951461065d57600080fd5b80638774e5d0116101225780638da5cb5b116101075780638da5cb5b146105f557806395d89b4114610613578063a22cb4651461062857600080fd5b80638774e5d0146105c057806389d08cf2146105e057600080fd5b806376d786a51161015357806376d786a5146105605780637f64978314610580578063818668d7146105a057600080fd5b806370a082311461052b578063715018a61461054b57600080fd5b8063346de50a1161021c57806355f804b3116101d05780635ccc6017116101b55780635ccc6017146104d85780636352211e146104eb5780636f8b44b01461050b57600080fd5b806355f804b3146104a357806359a7715a146104c357600080fd5b806341dd37a11161020157806341dd37a11461045757806342842e0e1461046d578063496feeee1461048d57600080fd5b8063346de50a1461041857806337e36f791461043757600080fd5b806309f3683f116102735780631a081330116102585780631a081330146103cb57806323b872dd146103e55780632db115441461040557600080fd5b806309f3683f1461039157806318160ddd146103b557600080fd5b806306fdde03116102a457806306fdde0314610315578063081812fc14610337578063095ea7b31461036f57600080fd5b80630116bc2d146102c057806301ffc9a7146102f5575b600080fd5b3480156102cc57600080fd5b50600e546102e09062010000900460ff1681565b60405190151581526020015b60405180910390f35b34801561030157600080fd5b506102e0610310366004612a01565b61079c565b34801561032157600080fd5b5061032a610839565b6040516102ec9190612b56565b34801561034357600080fd5b50610357610352366004612a7f565b6108cb565b6040516001600160a01b0390911681526020016102ec565b34801561037b57600080fd5b5061038f61038a36600461297e565b610965565b005b34801561039d57600080fd5b506103a7600a5481565b6040519081526020016102ec565b3480156103c157600080fd5b506103a7600b5481565b3480156103d757600080fd5b50600e546102e09060ff1681565b3480156103f157600080fd5b5061038f6104003660046128a1565b610a97565b61038f610413366004612a7f565b610b1e565b34801561042457600080fd5b50600e546102e090610100900460ff1681565b34801561044357600080fd5b5061038f61045236600461297e565b610dba565b34801561046357600080fd5b506103a760095481565b34801561047957600080fd5b5061038f6104883660046128a1565b610fd6565b34801561049957600080fd5b506103a7600d5481565b3480156104af57600080fd5b5061038f6104be366004612a39565b610ff1565b3480156104cf57600080fd5b506103a761104c565b61038f6104e63660046129a7565b61105b565b3480156104f757600080fd5b50610357610506366004612a7f565b6113e4565b34801561051757600080fd5b5061038f610526366004612a7f565b61146f565b34801561053757600080fd5b506103a7610546366004612855565b6114bc565b34801561055757600080fd5b5061038f611556565b34801561056c57600080fd5b5061038f61057b366004612a7f565b6115aa565b34801561058c57600080fd5b5061038f61059b3660046129a7565b6115f7565b3480156105ac57600080fd5b5061038f6105bb3660046129e7565b611742565b3480156105cc57600080fd5b5061038f6105db366004612a7f565b6117a6565b3480156105ec57600080fd5b50600a546103a7565b34801561060157600080fd5b506007546001600160a01b0316610357565b34801561061f57600080fd5b5061032a6117f3565b34801561063457600080fd5b5061038f610643366004612955565b611802565b34801561065457600080fd5b506009546103a7565b34801561066957600080fd5b506102e0610678366004612855565b61180d565b34801561068957600080fd5b5061038f6106983660046129e7565b61187b565b3480156106a957600080fd5b5061038f6106b83660046129a7565b6118d6565b3480156106c957600080fd5b5061038f6106d83660046128dc565b611a21565b3480156106e957600080fd5b5061032a6106f8366004612a7f565b611aaf565b34801561070957600080fd5b506103a7600c5481565b34801561071f57600080fd5b506102e061072e36600461286f565b6001600160a01b03918216600090815260056020908152604080832093909416825291909152205460ff1690565b34801561076857600080fd5b5061038f610777366004612855565b611b0d565b34801561078857600080fd5b5061038f6107973660046129e7565b611bdd565b60006001600160e01b031982167f80ac58cd0000000000000000000000000000000000000000000000000000000014806107ff57506001600160e01b031982167f5b5e139f00000000000000000000000000000000000000000000000000000000145b8061083357507f01ffc9a7000000000000000000000000000000000000000000000000000000006001600160e01b03198316145b92915050565b60606000805461084890612bf7565b80601f016020809104026020016040519081016040528092919081815260200182805461087490612bf7565b80156108c15780601f10610896576101008083540402835291602001916108c1565b820191906000526020600020905b8154815290600101906020018083116108a457829003601f168201915b5050505050905090565b6000818152600260205260408120546001600160a01b03166109495760405162461bcd60e51b815260206004820152602c60248201527f4552433732313a20617070726f76656420717565727920666f72206e6f6e657860448201526b34b9ba32b73a103a37b5b2b760a11b60648201526084015b60405180910390fd5b506000908152600460205260409020546001600160a01b031690565b6000610970826113e4565b9050806001600160a01b0316836001600160a01b031614156109fa5760405162461bcd60e51b815260206004820152602160248201527f4552433732313a20617070726f76616c20746f2063757272656e74206f776e6560448201527f72000000000000000000000000000000000000000000000000000000000000006064820152608401610940565b336001600160a01b0382161480610a165750610a16813361072e565b610a885760405162461bcd60e51b815260206004820152603860248201527f4552433732313a20617070726f76652063616c6c6572206973206e6f74206f7760448201527f6e6572206e6f7220617070726f76656420666f7220616c6c00000000000000006064820152608401610940565b610a928383611c3f565b505050565b610aa13382611cba565b610b135760405162461bcd60e51b815260206004820152603160248201527f4552433732313a207472616e736665722063616c6c6572206973206e6f74206f60448201527f776e6572206e6f7220617070726f7665640000000000000000000000000000006064820152608401610940565b610a92838383611db1565b600e5462010000900460ff16610b765760405162461bcd60e51b815260206004820152601a60248201527f7075626c6963206d696e74206973206e6f7420656e61626c65640000000000006044820152606401610940565b600081118015610b865750600381105b610bf85760405162461bcd60e51b815260206004820152602e60248201527f72657175657374656420636f756e742063616e206e6f74206265207a65726f2060448201527f6f72206d6f7265207468616e20320000000000000000000000000000000000006064820152608401610940565b601054336000908152601460205260409020544391610c179190611f8b565b10610c8a5760405162461bcd60e51b815260206004820152603660248201527f796f752073686f756c64206d696e7420616674657220616e20686f757220736960448201527f6e636520796f75206d616b65206c617374206d696e74000000000000000000006064820152608401610940565b600d5481610c97336114bc565b610ca19190612b69565b1115610cef5760405162461bcd60e51b815260206004820152601c60248201527f457863656564206d617820616d6f756e742070657220706572736f6e000000006044820152606401610940565b600954610cfc9082611f97565b341015610d4b5760405162461bcd60e51b815260206004820152601060248201527f4e6f7420656e6f756768206574686572000000000000000000000000000000006044820152606401610940565b60005b81811015610da4576011546000908152600260205260409020546001600160a01b0316610d8157610d8133601154611fa3565b601154610d8f906001611f8b565b60115580610d9c81612c32565b915050610d4e565b5050336000908152601460205260409020439055565b6007546001600160a01b03163314610e025760405162461bcd60e51b81526020600482018190526024820152600080516020612cba8339815191526044820152606401610940565b6001600160a01b038216610e4d5760405162461bcd60e51b8152602060048201526012602482015271139d5b1b081859191c995cdcc8199bdd5b9960721b6044820152606401610940565b600e54610100900460ff16610ea45760405162461bcd60e51b815260206004820152601660248201527f6d696e74696e67206973206e6f7420656e61626c6564000000000000000000006044820152606401610940565b600b54600c5411610ef75760405162461bcd60e51b815260206004820152600860248201527f736f6c64206f75740000000000000000000000000000000000000000000000006044820152606401610940565b6001600160a01b038216600090815260136020526040902054600d5411610f605760405162461bcd60e51b815260206004820152601f60248201527f74686520726563697069656e742068617320656e6f7567682077616c6c6574006044820152606401610940565b6001600160a01b03821660009081526012602052604090205460ff16610fc85760405162461bcd60e51b815260206004820152601860248201527f74686520726563697069656e7420697320696e76616c696400000000000000006044820152606401610940565b610fd28282611fa3565b5050565b610a9283838360405180602001604052806000815250611a21565b6007546001600160a01b031633146110395760405162461bcd60e51b81526020600482018190526024820152600080516020612cba8339815191526044820152606401610940565b8051610fd290600f9060208401906126d5565b600061105661205b565b905090565b3360009081526012602052604090205460ff166110ba5760405162461bcd60e51b815260206004820152601960248201527f796f7520617265206e6f7420696e207768697465206c697374000000000000006044820152606401610940565b600a546110c79082611f97565b3410156111165760405162461bcd60e51b815260206004820152601060248201527f4e6f7420656e6f756768206574686572000000000000000000000000000000006044820152606401610940565b6010543360009081526014602052604090205443916111359190611f8b565b116111a85760405162461bcd60e51b815260206004820152603660248201527f796f752073686f756c64206d696e7420616674657220616e20686f757220736960448201527f6e636520796f75206d616b65206c617374206d696e74000000000000000000006064820152608401610940565b600d54816111b5336114bc565b6111bf9190612b69565b111561120d5760405162461bcd60e51b815260206004820152601c60248201527f457863656564206d617820616d6f756e742070657220706572736f6e000000006044820152606401610940565b801580159061121c5750600381105b61128e5760405162461bcd60e51b815260206004820152602e60248201527f72657175657374656420636f756e742063616e206e6f74206265207a65726f2060448201527f6f72206d6f7265207468616e20320000000000000000000000000000000000006064820152608401610940565b60005b8181101561132357600c548383838181106112bc57634e487b7160e01b600052603260045260246000fd5b9050602002013511156113115760405162461bcd60e51b815260206004820152601a60248201527f6964206d75737420626520696e20737570706c792072616e67650000000000006044820152606401610940565b8061131b81612c32565b915050611291565b5060005b818110156113cd5761137683838381811061135257634e487b7160e01b600052603260045260246000fd5b905060200201356000908152600260205260409020546001600160a01b0316151590565b6113aa576113aa3384848481811061139e57634e487b7160e01b600052603260045260246000fd5b90506020020135611fa3565b6011546113b8906001611f8b565b601155806113c581612c32565b915050611327565b505033600090815260146020526040902043905550565b6000818152600260205260408120546001600160a01b0316806108335760405162461bcd60e51b815260206004820152602960248201527f4552433732313a206f776e657220717565727920666f72206e6f6e657869737460448201527f656e7420746f6b656e00000000000000000000000000000000000000000000006064820152608401610940565b6007546001600160a01b031633146114b75760405162461bcd60e51b81526020600482018190526024820152600080516020612cba8339815191526044820152606401610940565b600c55565b60006001600160a01b03821661153a5760405162461bcd60e51b815260206004820152602a60248201527f4552433732313a2062616c616e636520717565727920666f7220746865207a6560448201527f726f2061646472657373000000000000000000000000000000000000000000006064820152608401610940565b506001600160a01b031660009081526003602052604090205490565b6007546001600160a01b0316331461159e5760405162461bcd60e51b81526020600482018190526024820152600080516020612cba8339815191526044820152606401610940565b6115a86000612066565b565b6007546001600160a01b031633146115f25760405162461bcd60e51b81526020600482018190526024820152600080516020612cba8339815191526044820152606401610940565b600d55565b6007546001600160a01b0316331461163f5760405162461bcd60e51b81526020600482018190526024820152600080516020612cba8339815191526044820152606401610940565b60005b81811015610a9257600083838381811061166c57634e487b7160e01b600052603260045260246000fd5b90506020020160208101906116819190612855565b6001600160a01b031614156116cd5760405162461bcd60e51b8152602060048201526012602482015271139d5b1b081859191c995cdcc8199bdd5b9960721b6044820152606401610940565b6001601260008585858181106116f357634e487b7160e01b600052603260045260246000fd5b90506020020160208101906117089190612855565b6001600160a01b031681526020810191909152604001600020805460ff19169115159190911790558061173a81612c32565b915050611642565b6007546001600160a01b0316331461178a5760405162461bcd60e51b81526020600482018190526024820152600080516020612cba8339815191526044820152606401610940565b600e8054911515620100000262ff000019909216919091179055565b6007546001600160a01b031633146117ee5760405162461bcd60e51b81526020600482018190526024820152600080516020612cba8339815191526044820152606401610940565b600955565b60606001805461084890612bf7565b610fd23383836120c5565b6007546000906001600160a01b031633146118585760405162461bcd60e51b81526020600482018190526024820152600080516020612cba8339815191526044820152606401610940565b506001600160a01b03811660009081526012602052604090205460ff165b919050565b6007546001600160a01b031633146118c35760405162461bcd60e51b81526020600482018190526024820152600080516020612cba8339815191526044820152606401610940565b600e805460ff1916911515919091179055565b6007546001600160a01b0316331461191e5760405162461bcd60e51b81526020600482018190526024820152600080516020612cba8339815191526044820152606401610940565b60005b81811015610a9257600083838381811061194b57634e487b7160e01b600052603260045260246000fd5b90506020020160208101906119609190612855565b6001600160a01b031614156119ac5760405162461bcd60e51b8152602060048201526012602482015271139d5b1b081859191c995cdcc8199bdd5b9960721b6044820152606401610940565b6000601260008585858181106119d257634e487b7160e01b600052603260045260246000fd5b90506020020160208101906119e79190612855565b6001600160a01b031681526020810191909152604001600020805460ff191691151591909117905580611a1981612c32565b915050611921565b611a2b3383611cba565b611a9d5760405162461bcd60e51b815260206004820152603160248201527f4552433732313a207472616e736665722063616c6c6572206973206e6f74206f60448201527f776e6572206e6f7220617070726f7665640000000000000000000000000000006064820152608401610940565b611aa984848484612194565b50505050565b60606000611abb61221d565b90506000815111611adb5760405180602001604052806000815250611b06565b80611ae58461222c565b604051602001611af6929190612ac3565b6040516020818303038152906040525b9392505050565b6007546001600160a01b03163314611b555760405162461bcd60e51b81526020600482018190526024820152600080516020612cba8339815191526044820152606401610940565b6001600160a01b038116611bd15760405162461bcd60e51b815260206004820152602660248201527f4f776e61626c653a206e6577206f776e657220697320746865207a65726f206160448201527f64647265737300000000000000000000000000000000000000000000000000006064820152608401610940565b611bda81612066565b50565b6007546001600160a01b03163314611c255760405162461bcd60e51b81526020600482018190526024820152600080516020612cba8339815191526044820152606401610940565b600e80549115156101000261ff0019909216919091179055565b6000818152600460205260409020805473ffffffffffffffffffffffffffffffffffffffff19166001600160a01b0384169081179091558190611c81826113e4565b6001600160a01b03167f8c5be1e5ebec7d5bd14f71427d1e84f3dd0314c0f7b2291e5b200ac8c7c3b92560405160405180910390a45050565b6000818152600260205260408120546001600160a01b0316611d335760405162461bcd60e51b815260206004820152602c60248201527f4552433732313a206f70657261746f7220717565727920666f72206e6f6e657860448201526b34b9ba32b73a103a37b5b2b760a11b6064820152608401610940565b6000611d3e836113e4565b9050806001600160a01b0316846001600160a01b03161480611d795750836001600160a01b0316611d6e846108cb565b6001600160a01b0316145b80611da957506001600160a01b0380821660009081526005602090815260408083209388168352929052205460ff165b949350505050565b826001600160a01b0316611dc4826113e4565b6001600160a01b031614611e405760405162461bcd60e51b815260206004820152602560248201527f4552433732313a207472616e736665722066726f6d20696e636f72726563742060448201527f6f776e65720000000000000000000000000000000000000000000000000000006064820152608401610940565b6001600160a01b038216611ebb5760405162461bcd60e51b8152602060048201526024808201527f4552433732313a207472616e7366657220746f20746865207a65726f2061646460448201527f72657373000000000000000000000000000000000000000000000000000000006064820152608401610940565b611ec6600082611c3f565b6001600160a01b0383166000908152600360205260408120805460019290611eef908490612bb4565b90915550506001600160a01b0382166000908152600360205260408120805460019290611f1d908490612b69565b9091555050600081815260026020526040808220805473ffffffffffffffffffffffffffffffffffffffff19166001600160a01b0386811691821790925591518493918716917fddf252ad1be2c89b69c2b068fc378daa952ba7f163c4a11628f55a4df523b3ef91a4505050565b6000611b068284612b69565b6000611b068284612b95565b6000818152600260205260409020546001600160a01b0316156120085760405162461bcd60e51b815260206004820152601760248201527f746f6b656e20696420616c7265616479206d696e7465640000000000000000006044820152606401610940565b612012828261237a565b6120248161201f83611aaf565b6124c9565b6001600160a01b038216600090815260136020526040812080549161204883612c32565b9190505550610fd2600880546001019055565b600061105660085490565b600780546001600160a01b0383811673ffffffffffffffffffffffffffffffffffffffff19831681179093556040519116919082907f8be0079c531659141344cd1fd0a4f28419497f9722a3daafe3b4186f6b6457e090600090a35050565b816001600160a01b0316836001600160a01b031614156121275760405162461bcd60e51b815260206004820152601960248201527f4552433732313a20617070726f766520746f2063616c6c6572000000000000006044820152606401610940565b6001600160a01b03838116600081815260056020908152604080832094871680845294825291829020805460ff191686151590811790915591519182527f17307eab39ab6107e8899845ad3d59bd9653f200f220920489ca2b5937696c31910160405180910390a3505050565b61219f848484611db1565b6121ab84848484612572565b611aa95760405162461bcd60e51b815260206004820152603260248201527f4552433732313a207472616e7366657220746f206e6f6e20455243373231526560448201527f63656976657220696d706c656d656e74657200000000000000000000000000006064820152608401610940565b6060600f805461084890612bf7565b60608161226c57505060408051808201909152600181527f3000000000000000000000000000000000000000000000000000000000000000602082015290565b8160005b8115612296578061228081612c32565b915061228f9050600a83612b81565b9150612270565b60008167ffffffffffffffff8111156122bf57634e487b7160e01b600052604160045260246000fd5b6040519080825280601f01601f1916602001820160405280156122e9576020820181803683370190505b5090505b8415611da9576122fe600183612bb4565b915061230b600a86612c4d565b612316906030612b69565b60f81b81838151811061233957634e487b7160e01b600052603260045260246000fd5b60200101907effffffffffffffffffffffffffffffffffffffffffffffffffffffffffffff1916908160001a905350612373600a86612b81565b94506122ed565b6001600160a01b0382166123d05760405162461bcd60e51b815260206004820181905260248201527f4552433732313a206d696e7420746f20746865207a65726f20616464726573736044820152606401610940565b6000818152600260205260409020546001600160a01b0316156124355760405162461bcd60e51b815260206004820152601c60248201527f4552433732313a20746f6b656e20616c7265616479206d696e746564000000006044820152606401610940565b6001600160a01b038216600090815260036020526040812080546001929061245e908490612b69565b9091555050600081815260026020526040808220805473ffffffffffffffffffffffffffffffffffffffff19166001600160a01b03861690811790915590518392907fddf252ad1be2c89b69c2b068fc378daa952ba7f163c4a11628f55a4df523b3ef908290a45050565b6000828152600260205260409020546001600160a01b03166125535760405162461bcd60e51b815260206004820152602e60248201527f45524337323155524953746f726167653a2055524920736574206f66206e6f6e60448201527f6578697374656e7420746f6b656e0000000000000000000000000000000000006064820152608401610940565b60008281526006602090815260409091208251610a92928401906126d5565b60006001600160a01b0384163b156126ca57604051630a85bd0160e11b81526001600160a01b0385169063150b7a02906125b6903390899088908890600401612b1a565b602060405180830381600087803b1580156125d057600080fd5b505af1925050508015612600575060408051601f3d908101601f191682019092526125fd91810190612a1d565b60015b6126b0573d80801561262e576040519150601f19603f3d011682016040523d82523d6000602084013e612633565b606091505b5080516126a85760405162461bcd60e51b815260206004820152603260248201527f4552433732313a207472616e7366657220746f206e6f6e20455243373231526560448201527f63656976657220696d706c656d656e74657200000000000000000000000000006064820152608401610940565b805181602001fd5b6001600160e01b031916630a85bd0160e11b149050611da9565b506001949350505050565b8280546126e190612bf7565b90600052602060002090601f0160209004810192826127035760008555612749565b82601f1061271c57805160ff1916838001178555612749565b82800160010185558215612749579182015b8281111561274957825182559160200191906001019061272e565b50612755929150612759565b5090565b5b80821115612755576000815560010161275a565b600067ffffffffffffffff8084111561278957612789612c8d565b604051601f8501601f19908116603f011681019082821181831017156127b1576127b1612c8d565b816040528093508581528686860111156127ca57600080fd5b858560208301376000602087830101525050509392505050565b80356001600160a01b038116811461187657600080fd5b60008083601f84011261280c578081fd5b50813567ffffffffffffffff811115612823578182fd5b6020830191508360208260051b850101111561283e57600080fd5b9250929050565b8035801515811461187657600080fd5b600060208284031215612866578081fd5b611b06826127e4565b60008060408385031215612881578081fd5b61288a836127e4565b9150612898602084016127e4565b90509250929050565b6000806000606084860312156128b5578081fd5b6128be846127e4565b92506128cc602085016127e4565b9150604084013590509250925092565b600080600080608085870312156128f1578081fd5b6128fa856127e4565b9350612908602086016127e4565b925060408501359150606085013567ffffffffffffffff81111561292a578182fd5b8501601f8101871361293a578182fd5b6129498782356020840161276e565b91505092959194509250565b60008060408385031215612967578182fd5b612970836127e4565b915061289860208401612845565b60008060408385031215612990578182fd5b612999836127e4565b946020939093013593505050565b600080602083850312156129b9578182fd5b823567ffffffffffffffff8111156129cf578283fd5b6129db858286016127fb565b90969095509350505050565b6000602082840312156129f8578081fd5b611b0682612845565b600060208284031215612a12578081fd5b8135611b0681612ca3565b600060208284031215612a2e578081fd5b8151611b0681612ca3565b600060208284031215612a4a578081fd5b813567ffffffffffffffff811115612a60578182fd5b8201601f81018413612a70578182fd5b611da98482356020840161276e565b600060208284031215612a90578081fd5b5035919050565b60008151808452612aaf816020860160208601612bcb565b601f01601f19169290920160200192915050565b60008351612ad5818460208801612bcb565b835190830190612ae9818360208801612bcb565b7f2e6a736f6e0000000000000000000000000000000000000000000000000000009101908152600501949350505050565b60006001600160a01b03808716835280861660208401525083604083015260806060830152612b4c6080830184612a97565b9695505050505050565b602081526000611b066020830184612a97565b60008219821115612b7c57612b7c612c61565b500190565b600082612b9057612b90612c77565b500490565b6000816000190483118215151615612baf57612baf612c61565b500290565b600082821015612bc657612bc6612c61565b500390565b60005b83811015612be6578181015183820152602001612bce565b83811115611aa95750506000910152565b600181811c90821680612c0b57607f821691505b60208210811415612c2c57634e487b7160e01b600052602260045260246000fd5b50919050565b6000600019821415612c4657612c46612c61565b5060010190565b600082612c5c57612c5c612c77565b500690565b634e487b7160e01b600052601160045260246000fd5b634e487b7160e01b600052601260045260246000fd5b634e487b7160e01b600052604160045260246000fd5b6001600160e01b031981168114611bda57600080fdfe4f776e61626c653a2063616c6c6572206973206e6f7420746865206f776e6572a26469706673582212200d51dfd54fdabaf6e52ecad2480e8086fb709a0526e290c13529c9ae62ba507964736f6c63430008040033",
  "linkReferences": {},
  "deployedLinkReferences": {}
}