{
  "_format": "hh-sol-artifact-1",
  "contractName": "CryptoBaby",
  "sourceName": "contracts/CryptoBaby.sol",
  "abi": [
    {
      "inputs": [],
      "stateMutability": "nonpayable",
      "type": "constructor"
    },
    {
      "anonymous": false,
      "inputs": [
        {
          "indexed": true,
          "internalType": "address",
          "name": "owner",
          "type": "address"
        },
        {
          "indexed": true,
          "internalType": "address",
          "name": "approved",
          "type": "address"
        },
        {
          "indexed": true,
          "internalType": "uint256",
          "name": "tokenId",
          "type": "uint256"
        }
      ],
      "name": "Approval",
      "type": "event"
    },
    {
      "anonymous": false,
      "inputs": [
        {
          "indexed": true,
          "internalType": "address",
          "name": "owner",
          "type": "address"
        },
        {
          "indexed": true,
          "internalType": "address",
          "name": "operator",
          "type": "address"
        },
        {
          "indexed": false,
          "internalType": "bool",
          "name": "approved",
          "type": "bool"
        }
      ],
      "name": "ApprovalForAll",
      "type": "event"
    },
    {
      "anonymous": false,
      "inputs": [
        {
          "indexed": true,
          "internalType": "address",
          "name": "previousOwner",
          "type": "address"
        },
        {
          "indexed": true,
          "internalType": "address",
          "name": "newOwner",
          "type": "address"
        }
      ],
      "name": "OwnershipTransferred",
      "type": "event"
    },
    {
      "anonymous": false,
      "inputs": [
        {
          "indexed": true,
          "internalType": "address",
          "name": "from",
          "type": "address"
        },
        {
          "indexed": true,
          "internalType": "address",
          "name": "to",
          "type": "address"
        },
        {
          "indexed": true,
          "internalType": "uint256",
          "name": "tokenId",
          "type": "uint256"
        }
      ],
      "name": "Transfer",
      "type": "event"
    },
    {
      "inputs": [
        {
          "internalType": "address[]",
          "name": "addresses",
          "type": "address[]"
        }
      ],
      "name": "addToWhitelist",
      "outputs": [],
      "stateMutability": "nonpayable",
      "type": "function"
    },
    {
      "inputs": [
        {
          "internalType": "address",
          "name": "recipient",
          "type": "address"
        },
        {
          "internalType": "uint256",
          "name": "tokenId",
          "type": "uint256"
        }
      ],
      "name": "airdropNFT",
      "outputs": [],
      "stateMutability": "nonpayable",
      "type": "function"
    },
    {
      "inputs": [
        {
          "internalType": "address",
          "name": "to",
          "type": "address"
        },
        {
          "internalType": "uint256",
          "name": "tokenId",
          "type": "uint256"
        }
      ],
      "name": "approve",
      "outputs": [],
      "stateMutability": "nonpayable",
      "type": "function"
    },
    {
      "inputs": [
        {
          "internalType": "address",
          "name": "owner",
          "type": "address"
        }
      ],
      "name": "balanceOf",
      "outputs": [
        {
          "internalType": "uint256",
          "name": "",
          "type": "uint256"
        }
      ],
      "stateMutability": "view",
      "type": "function"
    },
    {
      "inputs": [
        {
          "internalType": "address",
          "name": "addr",
          "type": "address"
        }
      ],
      "name": "checkInWhiteList",
      "outputs": [
        {
          "internalType": "bool",
          "name": "",
          "type": "bool"
        }
      ],
      "stateMutability": "view",
      "type": "function"
    },
    {
      "inputs": [],
      "name": "ethMinPrice",
      "outputs": [
        {
          "internalType": "uint256",
          "name": "",
          "type": "uint256"
        }
      ],
      "stateMutability": "view",
      "type": "function"
    },
    {
      "inputs": [],
      "name": "ethWhitePrice",
      "outputs": [
        {
          "internalType": "uint256",
          "name": "",
          "type": "uint256"
        }
      ],
      "stateMutability": "view",
      "type": "function"
    },
    {
      "inputs": [
        {
          "internalType": "uint256",
          "name": "tokenId",
          "type": "uint256"
        }
      ],
      "name": "getApproved",
      "outputs": [
        {
          "internalType": "address",
          "name": "",
          "type": "address"
        }
      ],
      "stateMutability": "view",
      "type": "function"
    },
    {
      "inputs": [],
      "name": "getBalance",
      "outputs": [
        {
          "internalType": "uint256",
          "name": "",
          "type": "uint256"
        }
      ],
      "stateMutability": "view",
      "type": "function"
    },
    {
      "inputs": [],
      "name": "getBlockNumber",
      "outputs": [
        {
          "internalType": "uint256",
          "name": "",
          "type": "uint256"
        }
      ],
      "stateMutability": "view",
      "type": "function"
    },
    {
      "inputs": [],
      "name": "getLastBlockNumber",
      "outputs": [
        {
          "internalType": "uint256",
          "name": "",
          "type": "uint256"
        }
      ],
      "stateMutability": "view",
      "type": "function"
    },
    {
      "inputs": [],
      "name": "getMintPrice",
      "outputs": [
        {
          "internalType": "uint256",
          "name": "",
          "type": "uint256"
        }
      ],
      "stateMutability": "view",
      "type": "function"
    },
    {
      "inputs": [],
      "name": "getWhiteMintPrice",
      "outputs": [
        {
          "internalType": "uint256",
          "name": "",
          "type": "uint256"
        }
      ],
      "stateMutability": "view",
      "type": "function"
    },
    {
      "inputs": [
        {
          "internalType": "address",
          "name": "owner",
          "type": "address"
        },
        {
          "internalType": "address",
          "name": "operator",
          "type": "address"
        }
      ],
      "name": "isApprovedForAll",
      "outputs": [
        {
          "internalType": "bool",
          "name": "",
          "type": "bool"
        }
      ],
      "stateMutability": "view",
      "type": "function"
    },
    {
      "inputs": [],
      "name": "isMintEnabled",
      "outputs": [
        {
          "internalType": "bool",
          "name": "",
          "type": "bool"
        }
      ],
      "stateMutability": "view",
      "type": "function"
    },
    {
      "inputs": [],
      "name": "isPublicMintEnabled",
      "outputs": [
        {
          "internalType": "bool",
          "name": "",
          "type": "bool"
        }
      ],
      "stateMutability": "view",
      "type": "function"
    },
    {
      "inputs": [],
      "name": "isSaleOpen",
      "outputs": [
        {
          "internalType": "bool",
          "name": "",
          "type": "bool"
        }
      ],
      "stateMutability": "view",
      "type": "function"
    },
    {
      "inputs": [],
      "name": "maxSupply",
      "outputs": [
        {
          "internalType": "uint256",
          "name": "",
          "type": "uint256"
        }
      ],
      "stateMutability": "view",
      "type": "function"
    },
    {
      "inputs": [],
      "name": "maxWalletCount",
      "outputs": [
        {
          "internalType": "uint256",
          "name": "",
          "type": "uint256"
        }
      ],
      "stateMutability": "view",
      "type": "function"
    },
    {
      "inputs": [],
      "name": "name",
      "outputs": [
        {
          "internalType": "string",
          "name": "",
          "type": "string"
        }
      ],
      "stateMutability": "view",
      "type": "function"
    },
    {
      "inputs": [],
      "name": "owner",
      "outputs": [
        {
          "internalType": "address",
          "name": "",
          "type": "address"
        }
      ],
      "stateMutability": "view",
      "type": "function"
    },
    {
      "inputs": [
        {
          "internalType": "uint256",
          "name": "tokenId",
          "type": "uint256"
        }
      ],
      "name": "ownerOf",
      "outputs": [
        {
          "internalType": "address",
          "name": "",
          "type": "address"
        }
      ],
      "stateMutability": "view",
      "type": "function"
    },
    {
      "inputs": [
        {
          "internalType": "uint256",
          "name": "requestedCount",
          "type": "uint256"
        }
      ],
      "name": "publicMint",
      "outputs": [],
      "stateMutability": "payable",
      "type": "function"
    },
    {
      "inputs": [
        {
          "internalType": "address[]",
          "name": "addresses",
          "type": "address[]"
        }
      ],
      "name": "removeFromWhiteList",
      "outputs": [],
      "stateMutability": "nonpayable",
      "type": "function"
    },
    {
      "inputs": [],
      "name": "renounceOwnership",
      "outputs": [],
      "stateMutability": "nonpayable",
      "type": "function"
    },
    {
      "inputs": [
        {
          "internalType": "address",
          "name": "from",
          "type": "address"
        },
        {
          "internalType": "address",
          "name": "to",
          "type": "address"
        },
        {
          "internalType": "uint256",
          "name": "tokenId",
          "type": "uint256"
        }
      ],
      "name": "safeTransferFrom",
      "outputs": [],
      "stateMutability": "nonpayable",
      "type": "function"
    },
    {
      "inputs": [
        {
          "internalType": "address",
          "name": "from",
          "type": "address"
        },
        {
          "internalType": "address",
          "name": "to",
          "type": "address"
        },
        {
          "internalType": "uint256",
          "name": "tokenId",
          "type": "uint256"
        },
        {
          "internalType": "bytes",
          "name": "_data",
          "type": "bytes"
        }
      ],
      "name": "safeTransferFrom",
      "outputs": [],
      "stateMutability": "nonpayable",
      "type": "function"
    },
    {
      "inputs": [
        {
          "internalType": "address",
          "name": "operator",
          "type": "address"
        },
        {
          "internalType": "bool",
          "name": "approved",
          "type": "bool"
        }
      ],
      "name": "setApprovalForAll",
      "outputs": [],
      "stateMutability": "nonpayable",
      "type": "function"
    },
    {
      "inputs": [
        {
          "internalType": "string",
          "name": "_newBaseURI",
          "type": "string"
        }
      ],
      "name": "setBaseURI",
      "outputs": [],
      "stateMutability": "nonpayable",
      "type": "function"
    },
    {
      "inputs": [
        {
          "internalType": "uint256",
          "name": "_maxSupply",
          "type": "uint256"
        }
      ],
      "name": "setMaxSupply",
      "outputs": [],
      "stateMutability": "nonpayable",
      "type": "function"
    },
    {
      "inputs": [
        {
          "internalType": "uint256",
          "name": "_maxWallet",
          "type": "uint256"
        }
      ],
      "name": "setMaxWalletCount",
      "outputs": [],
      "stateMutability": "nonpayable",
      "type": "function"
    },
    {
      "inputs": [
        {
          "internalType": "bool",
          "name": "_isEnabled",
          "type": "bool"
        }
      ],
      "name": "setMintEnabled",
      "outputs": [],
      "stateMutability": "nonpayable",
      "type": "function"
    },
    {
      "inputs": [
        {
          "internalType": "uint256",
          "name": "_price",
          "type": "uint256"
        }
      ],
      "name": "setPriceInWei",
      "outputs": [],
      "stateMutability": "nonpayable",
      "type": "function"
    },
    {
      "inputs": [
        {
          "internalType": "bool",
          "name": "_isEnabled",
          "type": "bool"
        }
      ],
      "name": "setPublicMintEnabled",
      "outputs": [],
      "stateMutability": "nonpayable",
      "type": "function"
    },
    {
      "inputs": [
        {
          "internalType": "bool",
          "name": "_isSaleOpen",
          "type": "bool"
        }
      ],
      "name": "setSaleOpen",
      "outputs": [],
      "stateMutability": "nonpayable",
      "type": "function"
    },
    {
      "inputs": [
        {
          "internalType": "bytes4",
          "name": "interfaceId",
          "type": "bytes4"
        }
      ],
      "name": "supportsInterface",
      "outputs": [
        {
          "internalType": "bool",
          "name": "",
          "type": "bool"
        }
      ],
      "stateMutability": "view",
      "type": "function"
    },
    {
      "inputs": [],
      "name": "symbol",
      "outputs": [
        {
          "internalType": "string",
          "name": "",
          "type": "string"
        }
      ],
      "stateMutability": "view",
      "type": "function"
    },
    {
      "inputs": [
        {
          "internalType": "uint256",
          "name": "tokenId",
          "type": "uint256"
        }
      ],
      "name": "tokenURI",
      "outputs": [
        {
          "internalType": "string",
          "name": "",
          "type": "string"
        }
      ],
      "stateMutability": "view",
      "type": "function"
    },
    {
      "inputs": [],
      "name": "totalMint",
      "outputs": [
        {
          "internalType": "uint256",
          "name": "",
          "type": "uint256"
        }
      ],
      "stateMutability": "view",
      "type": "function"
    },
    {
      "inputs": [],
      "name": "totalSupply",
      "outputs": [
        {
          "internalType": "uint256",
          "name": "",
          "type": "uint256"
        }
      ],
      "stateMutability": "view",
      "type": "function"
    },
    {
      "inputs": [
        {
          "internalType": "address",
          "name": "from",
          "type": "address"
        },
        {
          "internalType": "address",
          "name": "to",
          "type": "address"
        },
        {
          "internalType": "uint256",
          "name": "tokenId",
          "type": "uint256"
        }
      ],
      "name": "transferFrom",
      "outputs": [],
      "stateMutability": "nonpayable",
      "type": "function"
    },
    {
      "inputs": [
        {
          "internalType": "address",
          "name": "newOwner",
          "type": "address"
        }
      ],
      "name": "transferOwnership",
      "outputs": [],
      "stateMutability": "nonpayable",
      "type": "function"
    },
    {
      "inputs": [
        {
          "internalType": "uint256[]",
          "name": "tokenIds",
          "type": "uint256[]"
        }
      ],
      "name": "whiteListMint",
      "outputs": [],
      "stateMutability": "payable",
      "type": "function"
    },
    {
      "inputs": [],
      "name": "withdraw",
      "outputs": [],
      "stateMutability": "nonpayable",
      "type": "function"
    }
  ],
  "bytecode": "0x66b1a2bc2ec5000060095566470de4df820000600a9081556103e8600c55600d55600e805462ffffff191661010017905560a06040819052600060808190526200004c91600f916200014a565b5061016860105560016011553480156200006557600080fd5b50604080518082018252600b81526a43727970746f206261627960a81b60208083019182528351808501909452600a84526943525950544f4241425960b01b908401528151919291620000bb916000916200014a565b508051620000d19060019060208401906200014a565b505050620000ee620000e8620000f460201b60201c565b620000f8565b6200022d565b3390565b600780546001600160a01b038381166001600160a01b0319831681179093556040519116919082907f8be0079c531659141344cd1fd0a4f28419497f9722a3daafe3b4186f6b6457e090600090a35050565b8280546200015890620001f0565b90600052602060002090601f0160209004810192826200017c5760008555620001c7565b82601f106200019757805160ff1916838001178555620001c7565b82800160010185558215620001c7579182015b82811115620001c7578251825591602001919060010190620001aa565b50620001d5929150620001d9565b5090565b5b80821115620001d55760008155600101620001da565b600181811c908216806200020557607f821691505b602082108114156200022757634e487b7160e01b600052602260045260246000fd5b50919050565b612ef9806200023d6000396000f3fe6080604052600436106102e75760003560e01c80636352211e11610184578063a22cb465116100d6578063b88d4fde1161008a578063e985e9c511610064578063e985e9c51461079e578063f2fde38b146107e7578063f46a04eb1461080757600080fd5b8063b88d4fde14610748578063c87b56dd14610768578063d5abeb011461078857600080fd5b8063ac444295116100bb578063ac444295146106e8578063af979f2514610708578063b11560c51461072857600080fd5b8063a22cb465146106b3578063a7f93ebd146106d357600080fd5b80637f6497831161013857806389d08cf21161011257806389d08cf21461066b5780638da5cb5b1461068057806395d89b411461069e57600080fd5b80637f6497831461060b578063818668d71461062b5780638774e5d01461064b57600080fd5b806370a082311161016957806370a08231146105b6578063715018a6146105d657806376d786a5146105eb57600080fd5b80636352211e146105765780636f8b44b01461059657600080fd5b8063346de50a1161023d57806342cbb15c116101f157806359a7715a116101cb57806359a7715a1461052c5780635ae6256d146105415780635ccc60171461056357600080fd5b806342cbb15c146104e3578063496feeee146104f657806355f804b31461050c57600080fd5b80633ccfd60b116102225780633ccfd60b1461049857806341dd37a1146104ad57806342842e0e146104c357600080fd5b8063346de50a1461045957806337e36f791461047857600080fd5b806309f3683f1161029f5780631a081330116102795780631a0813301461040c57806323b872dd146104265780632db115441461044657600080fd5b806309f3683f146103bd57806312065fe0146103e157806318160ddd146103f657600080fd5b806306fdde03116102d057806306fdde0314610341578063081812fc14610363578063095ea7b31461039b57600080fd5b80630116bc2d146102ec57806301ffc9a714610321575b600080fd5b3480156102f857600080fd5b50600e5461030c9062010000900460ff1681565b60405190151581526020015b60405180910390f35b34801561032d57600080fd5b5061030c61033c366004612beb565b610827565b34801561034d57600080fd5b506103566108c4565b6040516103189190612d40565b34801561036f57600080fd5b5061038361037e366004612c69565b610956565b6040516001600160a01b039091168152602001610318565b3480156103a757600080fd5b506103bb6103b6366004612b68565b6109f0565b005b3480156103c957600080fd5b506103d3600a5481565b604051908152602001610318565b3480156103ed57600080fd5b506103d3610b22565b34801561040257600080fd5b506103d3600b5481565b34801561041857600080fd5b50600e5461030c9060ff1681565b34801561043257600080fd5b506103bb610441366004612a8b565b610b72565b6103bb610454366004612c69565b610bf9565b34801561046557600080fd5b50600e5461030c90610100900460ff1681565b34801561048457600080fd5b506103bb610493366004612b68565b610e95565b3480156104a457600080fd5b506103bb6110b1565b3480156104b957600080fd5b506103d360095481565b3480156104cf57600080fd5b506103bb6104de366004612a8b565b6111c0565b3480156104ef57600080fd5b50436103d3565b34801561050257600080fd5b506103d3600d5481565b34801561051857600080fd5b506103bb610527366004612c23565b6111db565b34801561053857600080fd5b506103d3611236565b34801561054d57600080fd5b50336000908152601460205260409020546103d3565b6103bb610571366004612b91565b611245565b34801561058257600080fd5b50610383610591366004612c69565b6115ce565b3480156105a257600080fd5b506103bb6105b1366004612c69565b611659565b3480156105c257600080fd5b506103d36105d1366004612a3f565b6116a6565b3480156105e257600080fd5b506103bb611740565b3480156105f757600080fd5b506103bb610606366004612c69565b611794565b34801561061757600080fd5b506103bb610626366004612b91565b6117e1565b34801561063757600080fd5b506103bb610646366004612bd1565b61192c565b34801561065757600080fd5b506103bb610666366004612c69565b611990565b34801561067757600080fd5b50600a546103d3565b34801561068c57600080fd5b506007546001600160a01b0316610383565b3480156106aa57600080fd5b506103566119dd565b3480156106bf57600080fd5b506103bb6106ce366004612b3f565b6119ec565b3480156106df57600080fd5b506009546103d3565b3480156106f457600080fd5b5061030c610703366004612a3f565b6119f7565b34801561071457600080fd5b506103bb610723366004612bd1565b611a65565b34801561073457600080fd5b506103bb610743366004612b91565b611ac0565b34801561075457600080fd5b506103bb610763366004612ac6565b611c0b565b34801561077457600080fd5b50610356610783366004612c69565b611c99565b34801561079457600080fd5b506103d3600c5481565b3480156107aa57600080fd5b5061030c6107b9366004612a59565b6001600160a01b03918216600090815260056020908152604080832093909416825291909152205460ff1690565b3480156107f357600080fd5b506103bb610802366004612a3f565b611cf7565b34801561081357600080fd5b506103bb610822366004612bd1565b611dc7565b60006001600160e01b031982167f80ac58cd00000000000000000000000000000000000000000000000000000000148061088a57506001600160e01b031982167f5b5e139f00000000000000000000000000000000000000000000000000000000145b806108be57507f01ffc9a7000000000000000000000000000000000000000000000000000000006001600160e01b03198316145b92915050565b6060600080546108d390612de1565b80601f01602080910402602001604051908101604052809291908181526020018280546108ff90612de1565b801561094c5780601f106109215761010080835404028352916020019161094c565b820191906000526020600020905b81548152906001019060200180831161092f57829003601f168201915b5050505050905090565b6000818152600260205260408120546001600160a01b03166109d45760405162461bcd60e51b815260206004820152602c60248201527f4552433732313a20617070726f76656420717565727920666f72206e6f6e657860448201526b34b9ba32b73a103a37b5b2b760a11b60648201526084015b60405180910390fd5b506000908152600460205260409020546001600160a01b031690565b60006109fb826115ce565b9050806001600160a01b0316836001600160a01b03161415610a855760405162461bcd60e51b815260206004820152602160248201527f4552433732313a20617070726f76616c20746f2063757272656e74206f776e6560448201527f720000000000000000000000000000000000000000000000000000000000000060648201526084016109cb565b336001600160a01b0382161480610aa15750610aa181336107b9565b610b135760405162461bcd60e51b815260206004820152603860248201527f4552433732313a20617070726f76652063616c6c6572206973206e6f74206f7760448201527f6e6572206e6f7220617070726f76656420666f7220616c6c000000000000000060648201526084016109cb565b610b1d8383611e29565b505050565b6007546000906001600160a01b03163314610b6d5760405162461bcd60e51b81526020600482018190526024820152600080516020612ea483398151915260448201526064016109cb565b504790565b610b7c3382611ea4565b610bee5760405162461bcd60e51b815260206004820152603160248201527f4552433732313a207472616e736665722063616c6c6572206973206e6f74206f60448201527f776e6572206e6f7220617070726f76656400000000000000000000000000000060648201526084016109cb565b610b1d838383611f9b565b600e5462010000900460ff16610c515760405162461bcd60e51b815260206004820152601a60248201527f7075626c6963206d696e74206973206e6f7420656e61626c656400000000000060448201526064016109cb565b600081118015610c615750600381105b610cd35760405162461bcd60e51b815260206004820152602e60248201527f72657175657374656420636f756e742063616e206e6f74206265207a65726f2060448201527f6f72206d6f7265207468616e203200000000000000000000000000000000000060648201526084016109cb565b601054336000908152601460205260409020544391610cf29190612175565b10610d655760405162461bcd60e51b815260206004820152603660248201527f796f752073686f756c64206d696e7420616674657220616e20686f757220736960448201527f6e636520796f75206d616b65206c617374206d696e740000000000000000000060648201526084016109cb565b600d5481610d72336116a6565b610d7c9190612d53565b1115610dca5760405162461bcd60e51b815260206004820152601c60248201527f457863656564206d617820616d6f756e742070657220706572736f6e0000000060448201526064016109cb565b600954610dd79082612181565b341015610e265760405162461bcd60e51b815260206004820152601060248201527f4e6f7420656e6f7567682065746865720000000000000000000000000000000060448201526064016109cb565b60005b81811015610e7f576011546000908152600260205260409020546001600160a01b0316610e5c57610e5c3360115461218d565b601154610e6a906001612175565b60115580610e7781612e1c565b915050610e29565b5050336000908152601460205260409020439055565b6007546001600160a01b03163314610edd5760405162461bcd60e51b81526020600482018190526024820152600080516020612ea483398151915260448201526064016109cb565b6001600160a01b038216610f285760405162461bcd60e51b8152602060048201526012602482015271139d5b1b081859191c995cdcc8199bdd5b9960721b60448201526064016109cb565b600e54610100900460ff16610f7f5760405162461bcd60e51b815260206004820152601660248201527f6d696e74696e67206973206e6f7420656e61626c65640000000000000000000060448201526064016109cb565b600b54600c5411610fd25760405162461bcd60e51b815260206004820152600860248201527f736f6c64206f757400000000000000000000000000000000000000000000000060448201526064016109cb565b6001600160a01b038216600090815260136020526040902054600d541161103b5760405162461bcd60e51b815260206004820152601f60248201527f74686520726563697069656e742068617320656e6f7567682077616c6c65740060448201526064016109cb565b6001600160a01b03821660009081526012602052604090205460ff166110a35760405162461bcd60e51b815260206004820152601860248201527f74686520726563697069656e7420697320696e76616c6964000000000000000060448201526064016109cb565b6110ad828261218d565b5050565b6007546001600160a01b031633146110f95760405162461bcd60e51b81526020600482018190526024820152600080516020612ea483398151915260448201526064016109cb565b600061110d6007546001600160a01b031690565b90506001600160a01b03811661118b5760405162461bcd60e51b815260206004820152602960248201527f4552433732313a2061646472657373207a65726f206973206e6f74206120766160448201527f6c6964206f776e6572000000000000000000000000000000000000000000000060648201526084016109cb565b6040516001600160a01b038216904780156108fc02916000818181858888f193505050501580156110ad573d6000803e3d6000fd5b610b1d83838360405180602001604052806000815250611c0b565b6007546001600160a01b031633146112235760405162461bcd60e51b81526020600482018190526024820152600080516020612ea483398151915260448201526064016109cb565b80516110ad90600f9060208401906128bf565b6000611240612245565b905090565b3360009081526012602052604090205460ff166112a45760405162461bcd60e51b815260206004820152601960248201527f796f7520617265206e6f7420696e207768697465206c6973740000000000000060448201526064016109cb565b600a546112b19082612181565b3410156113005760405162461bcd60e51b815260206004820152601060248201527f4e6f7420656e6f7567682065746865720000000000000000000000000000000060448201526064016109cb565b60105433600090815260146020526040902054439161131f9190612175565b106113925760405162461bcd60e51b815260206004820152603660248201527f796f752073686f756c64206d696e7420616674657220616e20686f757220736960448201527f6e636520796f75206d616b65206c617374206d696e740000000000000000000060648201526084016109cb565b600d548161139f336116a6565b6113a99190612d53565b11156113f75760405162461bcd60e51b815260206004820152601c60248201527f457863656564206d617820616d6f756e742070657220706572736f6e0000000060448201526064016109cb565b80158015906114065750600381105b6114785760405162461bcd60e51b815260206004820152602e60248201527f72657175657374656420636f756e742063616e206e6f74206265207a65726f2060448201527f6f72206d6f7265207468616e203200000000000000000000000000000000000060648201526084016109cb565b60005b8181101561150d57600c548383838181106114a657634e487b7160e01b600052603260045260246000fd5b9050602002013511156114fb5760405162461bcd60e51b815260206004820152601a60248201527f6964206d75737420626520696e20737570706c792072616e676500000000000060448201526064016109cb565b8061150581612e1c565b91505061147b565b5060005b818110156115b75761156083838381811061153c57634e487b7160e01b600052603260045260246000fd5b905060200201356000908152600260205260409020546001600160a01b0316151590565b611594576115943384848481811061158857634e487b7160e01b600052603260045260246000fd5b9050602002013561218d565b6011546115a2906001612175565b601155806115af81612e1c565b915050611511565b505033600090815260146020526040902043905550565b6000818152600260205260408120546001600160a01b0316806108be5760405162461bcd60e51b815260206004820152602960248201527f4552433732313a206f776e657220717565727920666f72206e6f6e657869737460448201527f656e7420746f6b656e000000000000000000000000000000000000000000000060648201526084016109cb565b6007546001600160a01b031633146116a15760405162461bcd60e51b81526020600482018190526024820152600080516020612ea483398151915260448201526064016109cb565b600c55565b60006001600160a01b0382166117245760405162461bcd60e51b815260206004820152602a60248201527f4552433732313a2062616c616e636520717565727920666f7220746865207a6560448201527f726f20616464726573730000000000000000000000000000000000000000000060648201526084016109cb565b506001600160a01b031660009081526003602052604090205490565b6007546001600160a01b031633146117885760405162461bcd60e51b81526020600482018190526024820152600080516020612ea483398151915260448201526064016109cb565b6117926000612250565b565b6007546001600160a01b031633146117dc5760405162461bcd60e51b81526020600482018190526024820152600080516020612ea483398151915260448201526064016109cb565b600d55565b6007546001600160a01b031633146118295760405162461bcd60e51b81526020600482018190526024820152600080516020612ea483398151915260448201526064016109cb565b60005b81811015610b1d57600083838381811061185657634e487b7160e01b600052603260045260246000fd5b905060200201602081019061186b9190612a3f565b6001600160a01b031614156118b75760405162461bcd60e51b8152602060048201526012602482015271139d5b1b081859191c995cdcc8199bdd5b9960721b60448201526064016109cb565b6001601260008585858181106118dd57634e487b7160e01b600052603260045260246000fd5b90506020020160208101906118f29190612a3f565b6001600160a01b031681526020810191909152604001600020805460ff19169115159190911790558061192481612e1c565b91505061182c565b6007546001600160a01b031633146119745760405162461bcd60e51b81526020600482018190526024820152600080516020612ea483398151915260448201526064016109cb565b600e8054911515620100000262ff000019909216919091179055565b6007546001600160a01b031633146119d85760405162461bcd60e51b81526020600482018190526024820152600080516020612ea483398151915260448201526064016109cb565b600955565b6060600180546108d390612de1565b6110ad3383836122af565b6007546000906001600160a01b03163314611a425760405162461bcd60e51b81526020600482018190526024820152600080516020612ea483398151915260448201526064016109cb565b506001600160a01b03811660009081526012602052604090205460ff165b919050565b6007546001600160a01b03163314611aad5760405162461bcd60e51b81526020600482018190526024820152600080516020612ea483398151915260448201526064016109cb565b600e805460ff1916911515919091179055565b6007546001600160a01b03163314611b085760405162461bcd60e51b81526020600482018190526024820152600080516020612ea483398151915260448201526064016109cb565b60005b81811015610b1d576000838383818110611b3557634e487b7160e01b600052603260045260246000fd5b9050602002016020810190611b4a9190612a3f565b6001600160a01b03161415611b965760405162461bcd60e51b8152602060048201526012602482015271139d5b1b081859191c995cdcc8199bdd5b9960721b60448201526064016109cb565b600060126000858585818110611bbc57634e487b7160e01b600052603260045260246000fd5b9050602002016020810190611bd19190612a3f565b6001600160a01b031681526020810191909152604001600020805460ff191691151591909117905580611c0381612e1c565b915050611b0b565b611c153383611ea4565b611c875760405162461bcd60e51b815260206004820152603160248201527f4552433732313a207472616e736665722063616c6c6572206973206e6f74206f60448201527f776e6572206e6f7220617070726f76656400000000000000000000000000000060648201526084016109cb565b611c938484848461237e565b50505050565b60606000611ca5612407565b90506000815111611cc55760405180602001604052806000815250611cf0565b80611ccf84612416565b604051602001611ce0929190612cad565b6040516020818303038152906040525b9392505050565b6007546001600160a01b03163314611d3f5760405162461bcd60e51b81526020600482018190526024820152600080516020612ea483398151915260448201526064016109cb565b6001600160a01b038116611dbb5760405162461bcd60e51b815260206004820152602660248201527f4f776e61626c653a206e6577206f776e657220697320746865207a65726f206160448201527f646472657373000000000000000000000000000000000000000000000000000060648201526084016109cb565b611dc481612250565b50565b6007546001600160a01b03163314611e0f5760405162461bcd60e51b81526020600482018190526024820152600080516020612ea483398151915260448201526064016109cb565b600e80549115156101000261ff0019909216919091179055565b6000818152600460205260409020805473ffffffffffffffffffffffffffffffffffffffff19166001600160a01b0384169081179091558190611e6b826115ce565b6001600160a01b03167f8c5be1e5ebec7d5bd14f71427d1e84f3dd0314c0f7b2291e5b200ac8c7c3b92560405160405180910390a45050565b6000818152600260205260408120546001600160a01b0316611f1d5760405162461bcd60e51b815260206004820152602c60248201527f4552433732313a206f70657261746f7220717565727920666f72206e6f6e657860448201526b34b9ba32b73a103a37b5b2b760a11b60648201526084016109cb565b6000611f28836115ce565b9050806001600160a01b0316846001600160a01b03161480611f635750836001600160a01b0316611f5884610956565b6001600160a01b0316145b80611f9357506001600160a01b0380821660009081526005602090815260408083209388168352929052205460ff165b949350505050565b826001600160a01b0316611fae826115ce565b6001600160a01b03161461202a5760405162461bcd60e51b815260206004820152602560248201527f4552433732313a207472616e736665722066726f6d20696e636f72726563742060448201527f6f776e657200000000000000000000000000000000000000000000000000000060648201526084016109cb565b6001600160a01b0382166120a55760405162461bcd60e51b8152602060048201526024808201527f4552433732313a207472616e7366657220746f20746865207a65726f2061646460448201527f726573730000000000000000000000000000000000000000000000000000000060648201526084016109cb565b6120b0600082611e29565b6001600160a01b03831660009081526003602052604081208054600192906120d9908490612d9e565b90915550506001600160a01b0382166000908152600360205260408120805460019290612107908490612d53565b9091555050600081815260026020526040808220805473ffffffffffffffffffffffffffffffffffffffff19166001600160a01b0386811691821790925591518493918716917fddf252ad1be2c89b69c2b068fc378daa952ba7f163c4a11628f55a4df523b3ef91a4505050565b6000611cf08284612d53565b6000611cf08284612d7f565b6000818152600260205260409020546001600160a01b0316156121f25760405162461bcd60e51b815260206004820152601760248201527f746f6b656e20696420616c7265616479206d696e74656400000000000000000060448201526064016109cb565b6121fc8282612564565b61220e8161220983611c99565b6126b3565b6001600160a01b038216600090815260136020526040812080549161223283612e1c565b91905055506110ad600880546001019055565b600061124060085490565b600780546001600160a01b0383811673ffffffffffffffffffffffffffffffffffffffff19831681179093556040519116919082907f8be0079c531659141344cd1fd0a4f28419497f9722a3daafe3b4186f6b6457e090600090a35050565b816001600160a01b0316836001600160a01b031614156123115760405162461bcd60e51b815260206004820152601960248201527f4552433732313a20617070726f766520746f2063616c6c65720000000000000060448201526064016109cb565b6001600160a01b03838116600081815260056020908152604080832094871680845294825291829020805460ff191686151590811790915591519182527f17307eab39ab6107e8899845ad3d59bd9653f200f220920489ca2b5937696c31910160405180910390a3505050565b612389848484611f9b565b6123958484848461275c565b611c935760405162461bcd60e51b815260206004820152603260248201527f4552433732313a207472616e7366657220746f206e6f6e20455243373231526560448201527f63656976657220696d706c656d656e746572000000000000000000000000000060648201526084016109cb565b6060600f80546108d390612de1565b60608161245657505060408051808201909152600181527f3000000000000000000000000000000000000000000000000000000000000000602082015290565b8160005b8115612480578061246a81612e1c565b91506124799050600a83612d6b565b915061245a565b60008167ffffffffffffffff8111156124a957634e487b7160e01b600052604160045260246000fd5b6040519080825280601f01601f1916602001820160405280156124d3576020820181803683370190505b5090505b8415611f93576124e8600183612d9e565b91506124f5600a86612e37565b612500906030612d53565b60f81b81838151811061252357634e487b7160e01b600052603260045260246000fd5b60200101907effffffffffffffffffffffffffffffffffffffffffffffffffffffffffffff1916908160001a90535061255d600a86612d6b565b94506124d7565b6001600160a01b0382166125ba5760405162461bcd60e51b815260206004820181905260248201527f4552433732313a206d696e7420746f20746865207a65726f206164647265737360448201526064016109cb565b6000818152600260205260409020546001600160a01b03161561261f5760405162461bcd60e51b815260206004820152601c60248201527f4552433732313a20746f6b656e20616c7265616479206d696e7465640000000060448201526064016109cb565b6001600160a01b0382166000908152600360205260408120805460019290612648908490612d53565b9091555050600081815260026020526040808220805473ffffffffffffffffffffffffffffffffffffffff19166001600160a01b03861690811790915590518392907fddf252ad1be2c89b69c2b068fc378daa952ba7f163c4a11628f55a4df523b3ef908290a45050565b6000828152600260205260409020546001600160a01b031661273d5760405162461bcd60e51b815260206004820152602e60248201527f45524337323155524953746f726167653a2055524920736574206f66206e6f6e60448201527f6578697374656e7420746f6b656e00000000000000000000000000000000000060648201526084016109cb565b60008281526006602090815260409091208251610b1d928401906128bf565b60006001600160a01b0384163b156128b457604051630a85bd0160e11b81526001600160a01b0385169063150b7a02906127a0903390899088908890600401612d04565b602060405180830381600087803b1580156127ba57600080fd5b505af19250505080156127ea575060408051601f3d908101601f191682019092526127e791810190612c07565b60015b61289a573d808015612818576040519150601f19603f3d011682016040523d82523d6000602084013e61281d565b606091505b5080516128925760405162461bcd60e51b815260206004820152603260248201527f4552433732313a207472616e7366657220746f206e6f6e20455243373231526560448201527f63656976657220696d706c656d656e746572000000000000000000000000000060648201526084016109cb565b805181602001fd5b6001600160e01b031916630a85bd0160e11b149050611f93565b506001949350505050565b8280546128cb90612de1565b90600052602060002090601f0160209004810192826128ed5760008555612933565b82601f1061290657805160ff1916838001178555612933565b82800160010185558215612933579182015b82811115612933578251825591602001919060010190612918565b5061293f929150612943565b5090565b5b8082111561293f5760008155600101612944565b600067ffffffffffffffff8084111561297357612973612e77565b604051601f8501601f19908116603f0116810190828211818310171561299b5761299b612e77565b816040528093508581528686860111156129b457600080fd5b858560208301376000602087830101525050509392505050565b80356001600160a01b0381168114611a6057600080fd5b60008083601f8401126129f6578081fd5b50813567ffffffffffffffff811115612a0d578182fd5b6020830191508360208260051b8501011115612a2857600080fd5b9250929050565b80358015158114611a6057600080fd5b600060208284031215612a50578081fd5b611cf0826129ce565b60008060408385031215612a6b578081fd5b612a74836129ce565b9150612a82602084016129ce565b90509250929050565b600080600060608486031215612a9f578081fd5b612aa8846129ce565b9250612ab6602085016129ce565b9150604084013590509250925092565b60008060008060808587031215612adb578081fd5b612ae4856129ce565b9350612af2602086016129ce565b925060408501359150606085013567ffffffffffffffff811115612b14578182fd5b8501601f81018713612b24578182fd5b612b3387823560208401612958565b91505092959194509250565b60008060408385031215612b51578182fd5b612b5a836129ce565b9150612a8260208401612a2f565b60008060408385031215612b7a578182fd5b612b83836129ce565b946020939093013593505050565b60008060208385031215612ba3578182fd5b823567ffffffffffffffff811115612bb9578283fd5b612bc5858286016129e5565b90969095509350505050565b600060208284031215612be2578081fd5b611cf082612a2f565b600060208284031215612bfc578081fd5b8135611cf081612e8d565b600060208284031215612c18578081fd5b8151611cf081612e8d565b600060208284031215612c34578081fd5b813567ffffffffffffffff811115612c4a578182fd5b8201601f81018413612c5a578182fd5b611f9384823560208401612958565b600060208284031215612c7a578081fd5b5035919050565b60008151808452612c99816020860160208601612db5565b601f01601f19169290920160200192915050565b60008351612cbf818460208801612db5565b835190830190612cd3818360208801612db5565b7f2e6a736f6e0000000000000000000000000000000000000000000000000000009101908152600501949350505050565b60006001600160a01b03808716835280861660208401525083604083015260806060830152612d366080830184612c81565b9695505050505050565b602081526000611cf06020830184612c81565b60008219821115612d6657612d66612e4b565b500190565b600082612d7a57612d7a612e61565b500490565b6000816000190483118215151615612d9957612d99612e4b565b500290565b600082821015612db057612db0612e4b565b500390565b60005b83811015612dd0578181015183820152602001612db8565b83811115611c935750506000910152565b600181811c90821680612df557607f821691505b60208210811415612e1657634e487b7160e01b600052602260045260246000fd5b50919050565b6000600019821415612e3057612e30612e4b565b5060010190565b600082612e4657612e46612e61565b500690565b634e487b7160e01b600052601160045260246000fd5b634e487b7160e01b600052601260045260246000fd5b634e487b7160e01b600052604160045260246000fd5b6001600160e01b031981168114611dc457600080fdfe4f776e61626c653a2063616c6c6572206973206e6f7420746865206f776e6572a264697066735822122020a8174cf62dcd79dfb4645be478db10fcaab70fe91d334c567189c677e4313564736f6c63430008040033",
  "linkReferences": {},
  "deployedLinkReferences": {}
}