{
  "_format": "hh-sol-artifact-1",
  "contractName": "CryptoBaby",
  "sourceName": "contracts/CryptoBaby.sol",
  "abi": [
    {
      "inputs": [],
      "stateMutability": "nonpayable",
      "type": "constructor"
    },
    {
      "anonymous": false,
      "inputs": [
        {
          "indexed": true,
          "internalType": "address",
          "name": "owner",
          "type": "address"
        },
        {
          "indexed": true,
          "internalType": "address",
          "name": "approved",
          "type": "address"
        },
        {
          "indexed": true,
          "internalType": "uint256",
          "name": "tokenId",
          "type": "uint256"
        }
      ],
      "name": "Approval",
      "type": "event"
    },
    {
      "anonymous": false,
      "inputs": [
        {
          "indexed": true,
          "internalType": "address",
          "name": "owner",
          "type": "address"
        },
        {
          "indexed": true,
          "internalType": "address",
          "name": "operator",
          "type": "address"
        },
        {
          "indexed": false,
          "internalType": "bool",
          "name": "approved",
          "type": "bool"
        }
      ],
      "name": "ApprovalForAll",
      "type": "event"
    },
    {
      "anonymous": false,
      "inputs": [
        {
          "indexed": true,
          "internalType": "address",
          "name": "previousOwner",
          "type": "address"
        },
        {
          "indexed": true,
          "internalType": "address",
          "name": "newOwner",
          "type": "address"
        }
      ],
      "name": "OwnershipTransferred",
      "type": "event"
    },
    {
      "anonymous": false,
      "inputs": [
        {
          "indexed": true,
          "internalType": "address",
          "name": "from",
          "type": "address"
        },
        {
          "indexed": true,
          "internalType": "address",
          "name": "to",
          "type": "address"
        },
        {
          "indexed": true,
          "internalType": "uint256",
          "name": "tokenId",
          "type": "uint256"
        }
      ],
      "name": "Transfer",
      "type": "event"
    },
    {
      "inputs": [
        {
          "internalType": "address[]",
          "name": "addresses",
          "type": "address[]"
        }
      ],
      "name": "addToWhitelist",
      "outputs": [],
      "stateMutability": "nonpayable",
      "type": "function"
    },
    {
      "inputs": [
        {
          "internalType": "address",
          "name": "recipient",
          "type": "address"
        },
        {
          "internalType": "uint256",
          "name": "tokenId",
          "type": "uint256"
        }
      ],
      "name": "airdropNFT",
      "outputs": [],
      "stateMutability": "nonpayable",
      "type": "function"
    },
    {
      "inputs": [
        {
          "internalType": "address",
          "name": "to",
          "type": "address"
        },
        {
          "internalType": "uint256",
          "name": "tokenId",
          "type": "uint256"
        }
      ],
      "name": "approve",
      "outputs": [],
      "stateMutability": "nonpayable",
      "type": "function"
    },
    {
      "inputs": [
        {
          "internalType": "address",
          "name": "owner",
          "type": "address"
        }
      ],
      "name": "balanceOf",
      "outputs": [
        {
          "internalType": "uint256",
          "name": "",
          "type": "uint256"
        }
      ],
      "stateMutability": "view",
      "type": "function"
    },
    {
      "inputs": [
        {
          "internalType": "address",
          "name": "addr",
          "type": "address"
        }
      ],
      "name": "checkInWhiteList",
      "outputs": [
        {
          "internalType": "bool",
          "name": "",
          "type": "bool"
        }
      ],
      "stateMutability": "view",
      "type": "function"
    },
    {
      "inputs": [],
      "name": "ethMinPrice",
      "outputs": [
        {
          "internalType": "uint256",
          "name": "",
          "type": "uint256"
        }
      ],
      "stateMutability": "view",
      "type": "function"
    },
    {
      "inputs": [],
      "name": "ethWhitePrice",
      "outputs": [
        {
          "internalType": "uint256",
          "name": "",
          "type": "uint256"
        }
      ],
      "stateMutability": "view",
      "type": "function"
    },
    {
      "inputs": [
        {
          "internalType": "uint256",
          "name": "tokenId",
          "type": "uint256"
        }
      ],
      "name": "getApproved",
      "outputs": [
        {
          "internalType": "address",
          "name": "",
          "type": "address"
        }
      ],
      "stateMutability": "view",
      "type": "function"
    },
    {
      "inputs": [],
      "name": "getBlockNumber",
      "outputs": [
        {
          "internalType": "uint256",
          "name": "",
          "type": "uint256"
        }
      ],
      "stateMutability": "view",
      "type": "function"
    },
    {
      "inputs": [],
      "name": "getLastBlockNumber",
      "outputs": [
        {
          "internalType": "uint256",
          "name": "",
          "type": "uint256"
        }
      ],
      "stateMutability": "view",
      "type": "function"
    },
    {
      "inputs": [],
      "name": "getMintPrice",
      "outputs": [
        {
          "internalType": "uint256",
          "name": "",
          "type": "uint256"
        }
      ],
      "stateMutability": "view",
      "type": "function"
    },
    {
      "inputs": [],
      "name": "getWhiteMintPrice",
      "outputs": [
        {
          "internalType": "uint256",
          "name": "",
          "type": "uint256"
        }
      ],
      "stateMutability": "view",
      "type": "function"
    },
    {
      "inputs": [
        {
          "internalType": "address",
          "name": "owner",
          "type": "address"
        },
        {
          "internalType": "address",
          "name": "operator",
          "type": "address"
        }
      ],
      "name": "isApprovedForAll",
      "outputs": [
        {
          "internalType": "bool",
          "name": "",
          "type": "bool"
        }
      ],
      "stateMutability": "view",
      "type": "function"
    },
    {
      "inputs": [],
      "name": "isMintEnabled",
      "outputs": [
        {
          "internalType": "bool",
          "name": "",
          "type": "bool"
        }
      ],
      "stateMutability": "view",
      "type": "function"
    },
    {
      "inputs": [],
      "name": "isPublicMintEnabled",
      "outputs": [
        {
          "internalType": "bool",
          "name": "",
          "type": "bool"
        }
      ],
      "stateMutability": "view",
      "type": "function"
    },
    {
      "inputs": [],
      "name": "isSaleOpen",
      "outputs": [
        {
          "internalType": "bool",
          "name": "",
          "type": "bool"
        }
      ],
      "stateMutability": "view",
      "type": "function"
    },
    {
      "inputs": [],
      "name": "maxSupply",
      "outputs": [
        {
          "internalType": "uint256",
          "name": "",
          "type": "uint256"
        }
      ],
      "stateMutability": "view",
      "type": "function"
    },
    {
      "inputs": [],
      "name": "maxWalletCount",
      "outputs": [
        {
          "internalType": "uint256",
          "name": "",
          "type": "uint256"
        }
      ],
      "stateMutability": "view",
      "type": "function"
    },
    {
      "inputs": [],
      "name": "name",
      "outputs": [
        {
          "internalType": "string",
          "name": "",
          "type": "string"
        }
      ],
      "stateMutability": "view",
      "type": "function"
    },
    {
      "inputs": [],
      "name": "owner",
      "outputs": [
        {
          "internalType": "address",
          "name": "",
          "type": "address"
        }
      ],
      "stateMutability": "view",
      "type": "function"
    },
    {
      "inputs": [
        {
          "internalType": "uint256",
          "name": "tokenId",
          "type": "uint256"
        }
      ],
      "name": "ownerOf",
      "outputs": [
        {
          "internalType": "address",
          "name": "",
          "type": "address"
        }
      ],
      "stateMutability": "view",
      "type": "function"
    },
    {
      "inputs": [
        {
          "internalType": "uint256",
          "name": "requestedCount",
          "type": "uint256"
        }
      ],
      "name": "publicMint",
      "outputs": [],
      "stateMutability": "payable",
      "type": "function"
    },
    {
      "inputs": [
        {
          "internalType": "address[]",
          "name": "addresses",
          "type": "address[]"
        }
      ],
      "name": "removeFromWhiteList",
      "outputs": [],
      "stateMutability": "nonpayable",
      "type": "function"
    },
    {
      "inputs": [],
      "name": "renounceOwnership",
      "outputs": [],
      "stateMutability": "nonpayable",
      "type": "function"
    },
    {
      "inputs": [
        {
          "internalType": "address",
          "name": "from",
          "type": "address"
        },
        {
          "internalType": "address",
          "name": "to",
          "type": "address"
        },
        {
          "internalType": "uint256",
          "name": "tokenId",
          "type": "uint256"
        }
      ],
      "name": "safeTransferFrom",
      "outputs": [],
      "stateMutability": "nonpayable",
      "type": "function"
    },
    {
      "inputs": [
        {
          "internalType": "address",
          "name": "from",
          "type": "address"
        },
        {
          "internalType": "address",
          "name": "to",
          "type": "address"
        },
        {
          "internalType": "uint256",
          "name": "tokenId",
          "type": "uint256"
        },
        {
          "internalType": "bytes",
          "name": "_data",
          "type": "bytes"
        }
      ],
      "name": "safeTransferFrom",
      "outputs": [],
      "stateMutability": "nonpayable",
      "type": "function"
    },
    {
      "inputs": [
        {
          "internalType": "address",
          "name": "operator",
          "type": "address"
        },
        {
          "internalType": "bool",
          "name": "approved",
          "type": "bool"
        }
      ],
      "name": "setApprovalForAll",
      "outputs": [],
      "stateMutability": "nonpayable",
      "type": "function"
    },
    {
      "inputs": [
        {
          "internalType": "string",
          "name": "_newBaseURI",
          "type": "string"
        }
      ],
      "name": "setBaseURI",
      "outputs": [],
      "stateMutability": "nonpayable",
      "type": "function"
    },
    {
      "inputs": [
        {
          "internalType": "uint256",
          "name": "_maxSupply",
          "type": "uint256"
        }
      ],
      "name": "setMaxSupply",
      "outputs": [],
      "stateMutability": "nonpayable",
      "type": "function"
    },
    {
      "inputs": [
        {
          "internalType": "uint256",
          "name": "_maxWallet",
          "type": "uint256"
        }
      ],
      "name": "setMaxWalletCount",
      "outputs": [],
      "stateMutability": "nonpayable",
      "type": "function"
    },
    {
      "inputs": [
        {
          "internalType": "bool",
          "name": "_isEnabled",
          "type": "bool"
        }
      ],
      "name": "setMintEnabled",
      "outputs": [],
      "stateMutability": "nonpayable",
      "type": "function"
    },
    {
      "inputs": [
        {
          "internalType": "uint256",
          "name": "_price",
          "type": "uint256"
        }
      ],
      "name": "setPriceInWei",
      "outputs": [],
      "stateMutability": "nonpayable",
      "type": "function"
    },
    {
      "inputs": [
        {
          "internalType": "bool",
          "name": "_isEnabled",
          "type": "bool"
        }
      ],
      "name": "setPublicMintEnabled",
      "outputs": [],
      "stateMutability": "nonpayable",
      "type": "function"
    },
    {
      "inputs": [
        {
          "internalType": "bool",
          "name": "_isSaleOpen",
          "type": "bool"
        }
      ],
      "name": "setSaleOpen",
      "outputs": [],
      "stateMutability": "nonpayable",
      "type": "function"
    },
    {
      "inputs": [
        {
          "internalType": "bytes4",
          "name": "interfaceId",
          "type": "bytes4"
        }
      ],
      "name": "supportsInterface",
      "outputs": [
        {
          "internalType": "bool",
          "name": "",
          "type": "bool"
        }
      ],
      "stateMutability": "view",
      "type": "function"
    },
    {
      "inputs": [],
      "name": "symbol",
      "outputs": [
        {
          "internalType": "string",
          "name": "",
          "type": "string"
        }
      ],
      "stateMutability": "view",
      "type": "function"
    },
    {
      "inputs": [
        {
          "internalType": "uint256",
          "name": "tokenId",
          "type": "uint256"
        }
      ],
      "name": "tokenURI",
      "outputs": [
        {
          "internalType": "string",
          "name": "",
          "type": "string"
        }
      ],
      "stateMutability": "view",
      "type": "function"
    },
    {
      "inputs": [],
      "name": "totalMint",
      "outputs": [
        {
          "internalType": "uint256",
          "name": "",
          "type": "uint256"
        }
      ],
      "stateMutability": "view",
      "type": "function"
    },
    {
      "inputs": [],
      "name": "totalSupply",
      "outputs": [
        {
          "internalType": "uint256",
          "name": "",
          "type": "uint256"
        }
      ],
      "stateMutability": "view",
      "type": "function"
    },
    {
      "inputs": [
        {
          "internalType": "address",
          "name": "from",
          "type": "address"
        },
        {
          "internalType": "address",
          "name": "to",
          "type": "address"
        },
        {
          "internalType": "uint256",
          "name": "tokenId",
          "type": "uint256"
        }
      ],
      "name": "transferFrom",
      "outputs": [],
      "stateMutability": "nonpayable",
      "type": "function"
    },
    {
      "inputs": [
        {
          "internalType": "address",
          "name": "newOwner",
          "type": "address"
        }
      ],
      "name": "transferOwnership",
      "outputs": [],
      "stateMutability": "nonpayable",
      "type": "function"
    },
    {
      "inputs": [
        {
          "internalType": "uint256[]",
          "name": "tokenIds",
          "type": "uint256[]"
        }
      ],
      "name": "whiteListMint",
      "outputs": [],
      "stateMutability": "payable",
      "type": "function"
    }
  ],
  "bytecode": "0x66b1a2bc2ec5000060095566470de4df820000600a9081556103e8600c55600d55600e805462ffffff191661010017905560a06040819052600060808190526200004c91600f916200014a565b5061016860105560016011553480156200006557600080fd5b50604080518082018252600b81526a43727970746f206261627960a81b60208083019182528351808501909452600a84526943525950544f4241425960b01b908401528151919291620000bb916000916200014a565b508051620000d19060019060208401906200014a565b505050620000ee620000e8620000f460201b60201c565b620000f8565b6200022d565b3390565b600780546001600160a01b038381166001600160a01b0319831681179093556040519116919082907f8be0079c531659141344cd1fd0a4f28419497f9722a3daafe3b4186f6b6457e090600090a35050565b8280546200015890620001f0565b90600052602060002090601f0160209004810192826200017c5760008555620001c7565b82601f106200019757805160ff1916838001178555620001c7565b82800160010185558215620001c7579182015b82811115620001c7578251825591602001919060010190620001aa565b50620001d5929150620001d9565b5090565b5b80821115620001d55760008155600101620001da565b600181811c908216806200020557607f821691505b602082108114156200022757634e487b7160e01b600052602260045260246000fd5b50919050565b612d5a806200023d6000396000f3fe6080604052600436106102d15760003560e01c80636f8b44b011610179578063a22cb465116100d6578063b88d4fde1161008a578063e985e9c511610064578063e985e9c51461075e578063f2fde38b146107a7578063f46a04eb146107c757600080fd5b8063b88d4fde14610708578063c87b56dd14610728578063d5abeb011461074857600080fd5b8063ac444295116100bb578063ac444295146106a8578063af979f25146106c8578063b11560c5146106e857600080fd5b8063a22cb46514610673578063a7f93ebd1461069357600080fd5b8063818668d71161012d57806389d08cf21161011257806389d08cf21461062b5780638da5cb5b1461064057806395d89b411461065e57600080fd5b8063818668d7146105eb5780638774e5d01461060b57600080fd5b8063715018a61161015e578063715018a61461059657806376d786a5146105ab5780637f649783146105cb57600080fd5b80636f8b44b01461055657806370a082311461057657600080fd5b8063346de50a11610232578063496feeee116101e65780635ae6256d116101c05780635ae6256d146105015780635ccc6017146105235780636352211e1461053657600080fd5b8063496feeee146104b657806355f804b3146104cc57806359a7715a146104ec57600080fd5b806341dd37a11161021757806341dd37a11461046d57806342842e0e1461048357806342cbb15c146104a357600080fd5b8063346de50a1461042e57806337e36f791461044d57600080fd5b806309f3683f116102895780631a0813301161026e5780631a081330146103e157806323b872dd146103fb5780632db115441461041b57600080fd5b806309f3683f146103a757806318160ddd146103cb57600080fd5b806306fdde03116102ba57806306fdde031461032b578063081812fc1461034d578063095ea7b31461038557600080fd5b80630116bc2d146102d657806301ffc9a71461030b575b600080fd5b3480156102e257600080fd5b50600e546102f69062010000900460ff1681565b60405190151581526020015b60405180910390f35b34801561031757600080fd5b506102f6610326366004612a4c565b6107e7565b34801561033757600080fd5b50610340610884565b6040516103029190612ba1565b34801561035957600080fd5b5061036d610368366004612aca565b610916565b6040516001600160a01b039091168152602001610302565b34801561039157600080fd5b506103a56103a03660046129c9565b6109b0565b005b3480156103b357600080fd5b506103bd600a5481565b604051908152602001610302565b3480156103d757600080fd5b506103bd600b5481565b3480156103ed57600080fd5b50600e546102f69060ff1681565b34801561040757600080fd5b506103a56104163660046128ec565b610ae2565b6103a5610429366004612aca565b610b69565b34801561043a57600080fd5b50600e546102f690610100900460ff1681565b34801561045957600080fd5b506103a56104683660046129c9565b610e05565b34801561047957600080fd5b506103bd60095481565b34801561048f57600080fd5b506103a561049e3660046128ec565b611021565b3480156104af57600080fd5b50436103bd565b3480156104c257600080fd5b506103bd600d5481565b3480156104d857600080fd5b506103a56104e7366004612a84565b61103c565b3480156104f857600080fd5b506103bd611097565b34801561050d57600080fd5b50336000908152601460205260409020546103bd565b6103a56105313660046129f2565b6110a6565b34801561054257600080fd5b5061036d610551366004612aca565b61142f565b34801561056257600080fd5b506103a5610571366004612aca565b6114ba565b34801561058257600080fd5b506103bd6105913660046128a0565b611507565b3480156105a257600080fd5b506103a56115a1565b3480156105b757600080fd5b506103a56105c6366004612aca565b6115f5565b3480156105d757600080fd5b506103a56105e63660046129f2565b611642565b3480156105f757600080fd5b506103a5610606366004612a32565b61178d565b34801561061757600080fd5b506103a5610626366004612aca565b6117f1565b34801561063757600080fd5b50600a546103bd565b34801561064c57600080fd5b506007546001600160a01b031661036d565b34801561066a57600080fd5b5061034061183e565b34801561067f57600080fd5b506103a561068e3660046129a0565b61184d565b34801561069f57600080fd5b506009546103bd565b3480156106b457600080fd5b506102f66106c33660046128a0565b611858565b3480156106d457600080fd5b506103a56106e3366004612a32565b6118c6565b3480156106f457600080fd5b506103a56107033660046129f2565b611921565b34801561071457600080fd5b506103a5610723366004612927565b611a6c565b34801561073457600080fd5b50610340610743366004612aca565b611afa565b34801561075457600080fd5b506103bd600c5481565b34801561076a57600080fd5b506102f66107793660046128ba565b6001600160a01b03918216600090815260056020908152604080832093909416825291909152205460ff1690565b3480156107b357600080fd5b506103a56107c23660046128a0565b611b58565b3480156107d357600080fd5b506103a56107e2366004612a32565b611c28565b60006001600160e01b031982167f80ac58cd00000000000000000000000000000000000000000000000000000000148061084a57506001600160e01b031982167f5b5e139f00000000000000000000000000000000000000000000000000000000145b8061087e57507f01ffc9a7000000000000000000000000000000000000000000000000000000006001600160e01b03198316145b92915050565b60606000805461089390612c42565b80601f01602080910402602001604051908101604052809291908181526020018280546108bf90612c42565b801561090c5780601f106108e15761010080835404028352916020019161090c565b820191906000526020600020905b8154815290600101906020018083116108ef57829003601f168201915b5050505050905090565b6000818152600260205260408120546001600160a01b03166109945760405162461bcd60e51b815260206004820152602c60248201527f4552433732313a20617070726f76656420717565727920666f72206e6f6e657860448201526b34b9ba32b73a103a37b5b2b760a11b60648201526084015b60405180910390fd5b506000908152600460205260409020546001600160a01b031690565b60006109bb8261142f565b9050806001600160a01b0316836001600160a01b03161415610a455760405162461bcd60e51b815260206004820152602160248201527f4552433732313a20617070726f76616c20746f2063757272656e74206f776e6560448201527f7200000000000000000000000000000000000000000000000000000000000000606482015260840161098b565b336001600160a01b0382161480610a615750610a618133610779565b610ad35760405162461bcd60e51b815260206004820152603860248201527f4552433732313a20617070726f76652063616c6c6572206973206e6f74206f7760448201527f6e6572206e6f7220617070726f76656420666f7220616c6c0000000000000000606482015260840161098b565b610add8383611c8a565b505050565b610aec3382611d05565b610b5e5760405162461bcd60e51b815260206004820152603160248201527f4552433732313a207472616e736665722063616c6c6572206973206e6f74206f60448201527f776e6572206e6f7220617070726f766564000000000000000000000000000000606482015260840161098b565b610add838383611dfc565b600e5462010000900460ff16610bc15760405162461bcd60e51b815260206004820152601a60248201527f7075626c6963206d696e74206973206e6f7420656e61626c6564000000000000604482015260640161098b565b600081118015610bd15750600381105b610c435760405162461bcd60e51b815260206004820152602e60248201527f72657175657374656420636f756e742063616e206e6f74206265207a65726f2060448201527f6f72206d6f7265207468616e2032000000000000000000000000000000000000606482015260840161098b565b601054336000908152601460205260409020544391610c629190611fd6565b10610cd55760405162461bcd60e51b815260206004820152603660248201527f796f752073686f756c64206d696e7420616674657220616e20686f757220736960448201527f6e636520796f75206d616b65206c617374206d696e7400000000000000000000606482015260840161098b565b600d5481610ce233611507565b610cec9190612bb4565b1115610d3a5760405162461bcd60e51b815260206004820152601c60248201527f457863656564206d617820616d6f756e742070657220706572736f6e00000000604482015260640161098b565b600954610d479082611fe2565b341015610d965760405162461bcd60e51b815260206004820152601060248201527f4e6f7420656e6f75676820657468657200000000000000000000000000000000604482015260640161098b565b60005b81811015610def576011546000908152600260205260409020546001600160a01b0316610dcc57610dcc33601154611fee565b601154610dda906001611fd6565b60115580610de781612c7d565b915050610d99565b5050336000908152601460205260409020439055565b6007546001600160a01b03163314610e4d5760405162461bcd60e51b81526020600482018190526024820152600080516020612d05833981519152604482015260640161098b565b6001600160a01b038216610e985760405162461bcd60e51b8152602060048201526012602482015271139d5b1b081859191c995cdcc8199bdd5b9960721b604482015260640161098b565b600e54610100900460ff16610eef5760405162461bcd60e51b815260206004820152601660248201527f6d696e74696e67206973206e6f7420656e61626c656400000000000000000000604482015260640161098b565b600b54600c5411610f425760405162461bcd60e51b815260206004820152600860248201527f736f6c64206f7574000000000000000000000000000000000000000000000000604482015260640161098b565b6001600160a01b038216600090815260136020526040902054600d5411610fab5760405162461bcd60e51b815260206004820152601f60248201527f74686520726563697069656e742068617320656e6f7567682077616c6c657400604482015260640161098b565b6001600160a01b03821660009081526012602052604090205460ff166110135760405162461bcd60e51b815260206004820152601860248201527f74686520726563697069656e7420697320696e76616c69640000000000000000604482015260640161098b565b61101d8282611fee565b5050565b610add83838360405180602001604052806000815250611a6c565b6007546001600160a01b031633146110845760405162461bcd60e51b81526020600482018190526024820152600080516020612d05833981519152604482015260640161098b565b805161101d90600f906020840190612720565b60006110a16120a6565b905090565b3360009081526012602052604090205460ff166111055760405162461bcd60e51b815260206004820152601960248201527f796f7520617265206e6f7420696e207768697465206c69737400000000000000604482015260640161098b565b600a546111129082611fe2565b3410156111615760405162461bcd60e51b815260206004820152601060248201527f4e6f7420656e6f75676820657468657200000000000000000000000000000000604482015260640161098b565b6010543360009081526014602052604090205443916111809190611fd6565b106111f35760405162461bcd60e51b815260206004820152603660248201527f796f752073686f756c64206d696e7420616674657220616e20686f757220736960448201527f6e636520796f75206d616b65206c617374206d696e7400000000000000000000606482015260840161098b565b600d548161120033611507565b61120a9190612bb4565b11156112585760405162461bcd60e51b815260206004820152601c60248201527f457863656564206d617820616d6f756e742070657220706572736f6e00000000604482015260640161098b565b80158015906112675750600381105b6112d95760405162461bcd60e51b815260206004820152602e60248201527f72657175657374656420636f756e742063616e206e6f74206265207a65726f2060448201527f6f72206d6f7265207468616e2032000000000000000000000000000000000000606482015260840161098b565b60005b8181101561136e57600c5483838381811061130757634e487b7160e01b600052603260045260246000fd5b90506020020135111561135c5760405162461bcd60e51b815260206004820152601a60248201527f6964206d75737420626520696e20737570706c792072616e6765000000000000604482015260640161098b565b8061136681612c7d565b9150506112dc565b5060005b81811015611418576113c183838381811061139d57634e487b7160e01b600052603260045260246000fd5b905060200201356000908152600260205260409020546001600160a01b0316151590565b6113f5576113f5338484848181106113e957634e487b7160e01b600052603260045260246000fd5b90506020020135611fee565b601154611403906001611fd6565b6011558061141081612c7d565b915050611372565b505033600090815260146020526040902043905550565b6000818152600260205260408120546001600160a01b03168061087e5760405162461bcd60e51b815260206004820152602960248201527f4552433732313a206f776e657220717565727920666f72206e6f6e657869737460448201527f656e7420746f6b656e0000000000000000000000000000000000000000000000606482015260840161098b565b6007546001600160a01b031633146115025760405162461bcd60e51b81526020600482018190526024820152600080516020612d05833981519152604482015260640161098b565b600c55565b60006001600160a01b0382166115855760405162461bcd60e51b815260206004820152602a60248201527f4552433732313a2062616c616e636520717565727920666f7220746865207a6560448201527f726f206164647265737300000000000000000000000000000000000000000000606482015260840161098b565b506001600160a01b031660009081526003602052604090205490565b6007546001600160a01b031633146115e95760405162461bcd60e51b81526020600482018190526024820152600080516020612d05833981519152604482015260640161098b565b6115f360006120b1565b565b6007546001600160a01b0316331461163d5760405162461bcd60e51b81526020600482018190526024820152600080516020612d05833981519152604482015260640161098b565b600d55565b6007546001600160a01b0316331461168a5760405162461bcd60e51b81526020600482018190526024820152600080516020612d05833981519152604482015260640161098b565b60005b81811015610add5760008383838181106116b757634e487b7160e01b600052603260045260246000fd5b90506020020160208101906116cc91906128a0565b6001600160a01b031614156117185760405162461bcd60e51b8152602060048201526012602482015271139d5b1b081859191c995cdcc8199bdd5b9960721b604482015260640161098b565b60016012600085858581811061173e57634e487b7160e01b600052603260045260246000fd5b905060200201602081019061175391906128a0565b6001600160a01b031681526020810191909152604001600020805460ff19169115159190911790558061178581612c7d565b91505061168d565b6007546001600160a01b031633146117d55760405162461bcd60e51b81526020600482018190526024820152600080516020612d05833981519152604482015260640161098b565b600e8054911515620100000262ff000019909216919091179055565b6007546001600160a01b031633146118395760405162461bcd60e51b81526020600482018190526024820152600080516020612d05833981519152604482015260640161098b565b600955565b60606001805461089390612c42565b61101d338383612110565b6007546000906001600160a01b031633146118a35760405162461bcd60e51b81526020600482018190526024820152600080516020612d05833981519152604482015260640161098b565b506001600160a01b03811660009081526012602052604090205460ff165b919050565b6007546001600160a01b0316331461190e5760405162461bcd60e51b81526020600482018190526024820152600080516020612d05833981519152604482015260640161098b565b600e805460ff1916911515919091179055565b6007546001600160a01b031633146119695760405162461bcd60e51b81526020600482018190526024820152600080516020612d05833981519152604482015260640161098b565b60005b81811015610add57600083838381811061199657634e487b7160e01b600052603260045260246000fd5b90506020020160208101906119ab91906128a0565b6001600160a01b031614156119f75760405162461bcd60e51b8152602060048201526012602482015271139d5b1b081859191c995cdcc8199bdd5b9960721b604482015260640161098b565b600060126000858585818110611a1d57634e487b7160e01b600052603260045260246000fd5b9050602002016020810190611a3291906128a0565b6001600160a01b031681526020810191909152604001600020805460ff191691151591909117905580611a6481612c7d565b91505061196c565b611a763383611d05565b611ae85760405162461bcd60e51b815260206004820152603160248201527f4552433732313a207472616e736665722063616c6c6572206973206e6f74206f60448201527f776e6572206e6f7220617070726f766564000000000000000000000000000000606482015260840161098b565b611af4848484846121df565b50505050565b60606000611b06612268565b90506000815111611b265760405180602001604052806000815250611b51565b80611b3084612277565b604051602001611b41929190612b0e565b6040516020818303038152906040525b9392505050565b6007546001600160a01b03163314611ba05760405162461bcd60e51b81526020600482018190526024820152600080516020612d05833981519152604482015260640161098b565b6001600160a01b038116611c1c5760405162461bcd60e51b815260206004820152602660248201527f4f776e61626c653a206e6577206f776e657220697320746865207a65726f206160448201527f6464726573730000000000000000000000000000000000000000000000000000606482015260840161098b565b611c25816120b1565b50565b6007546001600160a01b03163314611c705760405162461bcd60e51b81526020600482018190526024820152600080516020612d05833981519152604482015260640161098b565b600e80549115156101000261ff0019909216919091179055565b6000818152600460205260409020805473ffffffffffffffffffffffffffffffffffffffff19166001600160a01b0384169081179091558190611ccc8261142f565b6001600160a01b03167f8c5be1e5ebec7d5bd14f71427d1e84f3dd0314c0f7b2291e5b200ac8c7c3b92560405160405180910390a45050565b6000818152600260205260408120546001600160a01b0316611d7e5760405162461bcd60e51b815260206004820152602c60248201527f4552433732313a206f70657261746f7220717565727920666f72206e6f6e657860448201526b34b9ba32b73a103a37b5b2b760a11b606482015260840161098b565b6000611d898361142f565b9050806001600160a01b0316846001600160a01b03161480611dc45750836001600160a01b0316611db984610916565b6001600160a01b0316145b80611df457506001600160a01b0380821660009081526005602090815260408083209388168352929052205460ff165b949350505050565b826001600160a01b0316611e0f8261142f565b6001600160a01b031614611e8b5760405162461bcd60e51b815260206004820152602560248201527f4552433732313a207472616e736665722066726f6d20696e636f72726563742060448201527f6f776e6572000000000000000000000000000000000000000000000000000000606482015260840161098b565b6001600160a01b038216611f065760405162461bcd60e51b8152602060048201526024808201527f4552433732313a207472616e7366657220746f20746865207a65726f2061646460448201527f7265737300000000000000000000000000000000000000000000000000000000606482015260840161098b565b611f11600082611c8a565b6001600160a01b0383166000908152600360205260408120805460019290611f3a908490612bff565b90915550506001600160a01b0382166000908152600360205260408120805460019290611f68908490612bb4565b9091555050600081815260026020526040808220805473ffffffffffffffffffffffffffffffffffffffff19166001600160a01b0386811691821790925591518493918716917fddf252ad1be2c89b69c2b068fc378daa952ba7f163c4a11628f55a4df523b3ef91a4505050565b6000611b518284612bb4565b6000611b518284612be0565b6000818152600260205260409020546001600160a01b0316156120535760405162461bcd60e51b815260206004820152601760248201527f746f6b656e20696420616c7265616479206d696e746564000000000000000000604482015260640161098b565b61205d82826123c5565b61206f8161206a83611afa565b612514565b6001600160a01b038216600090815260136020526040812080549161209383612c7d565b919050555061101d600880546001019055565b60006110a160085490565b600780546001600160a01b0383811673ffffffffffffffffffffffffffffffffffffffff19831681179093556040519116919082907f8be0079c531659141344cd1fd0a4f28419497f9722a3daafe3b4186f6b6457e090600090a35050565b816001600160a01b0316836001600160a01b031614156121725760405162461bcd60e51b815260206004820152601960248201527f4552433732313a20617070726f766520746f2063616c6c657200000000000000604482015260640161098b565b6001600160a01b03838116600081815260056020908152604080832094871680845294825291829020805460ff191686151590811790915591519182527f17307eab39ab6107e8899845ad3d59bd9653f200f220920489ca2b5937696c31910160405180910390a3505050565b6121ea848484611dfc565b6121f6848484846125bd565b611af45760405162461bcd60e51b815260206004820152603260248201527f4552433732313a207472616e7366657220746f206e6f6e20455243373231526560448201527f63656976657220696d706c656d656e7465720000000000000000000000000000606482015260840161098b565b6060600f805461089390612c42565b6060816122b757505060408051808201909152600181527f3000000000000000000000000000000000000000000000000000000000000000602082015290565b8160005b81156122e157806122cb81612c7d565b91506122da9050600a83612bcc565b91506122bb565b60008167ffffffffffffffff81111561230a57634e487b7160e01b600052604160045260246000fd5b6040519080825280601f01601f191660200182016040528015612334576020820181803683370190505b5090505b8415611df457612349600183612bff565b9150612356600a86612c98565b612361906030612bb4565b60f81b81838151811061238457634e487b7160e01b600052603260045260246000fd5b60200101907effffffffffffffffffffffffffffffffffffffffffffffffffffffffffffff1916908160001a9053506123be600a86612bcc565b9450612338565b6001600160a01b03821661241b5760405162461bcd60e51b815260206004820181905260248201527f4552433732313a206d696e7420746f20746865207a65726f2061646472657373604482015260640161098b565b6000818152600260205260409020546001600160a01b0316156124805760405162461bcd60e51b815260206004820152601c60248201527f4552433732313a20746f6b656e20616c7265616479206d696e74656400000000604482015260640161098b565b6001600160a01b03821660009081526003602052604081208054600192906124a9908490612bb4565b9091555050600081815260026020526040808220805473ffffffffffffffffffffffffffffffffffffffff19166001600160a01b03861690811790915590518392907fddf252ad1be2c89b69c2b068fc378daa952ba7f163c4a11628f55a4df523b3ef908290a45050565b6000828152600260205260409020546001600160a01b031661259e5760405162461bcd60e51b815260206004820152602e60248201527f45524337323155524953746f726167653a2055524920736574206f66206e6f6e60448201527f6578697374656e7420746f6b656e000000000000000000000000000000000000606482015260840161098b565b60008281526006602090815260409091208251610add92840190612720565b60006001600160a01b0384163b1561271557604051630a85bd0160e11b81526001600160a01b0385169063150b7a0290612601903390899088908890600401612b65565b602060405180830381600087803b15801561261b57600080fd5b505af192505050801561264b575060408051601f3d908101601f1916820190925261264891810190612a68565b60015b6126fb573d808015612679576040519150601f19603f3d011682016040523d82523d6000602084013e61267e565b606091505b5080516126f35760405162461bcd60e51b815260206004820152603260248201527f4552433732313a207472616e7366657220746f206e6f6e20455243373231526560448201527f63656976657220696d706c656d656e7465720000000000000000000000000000606482015260840161098b565b805181602001fd5b6001600160e01b031916630a85bd0160e11b149050611df4565b506001949350505050565b82805461272c90612c42565b90600052602060002090601f01602090048101928261274e5760008555612794565b82601f1061276757805160ff1916838001178555612794565b82800160010185558215612794579182015b82811115612794578251825591602001919060010190612779565b506127a09291506127a4565b5090565b5b808211156127a057600081556001016127a5565b600067ffffffffffffffff808411156127d4576127d4612cd8565b604051601f8501601f19908116603f011681019082821181831017156127fc576127fc612cd8565b8160405280935085815286868601111561281557600080fd5b858560208301376000602087830101525050509392505050565b80356001600160a01b03811681146118c157600080fd5b60008083601f840112612857578081fd5b50813567ffffffffffffffff81111561286e578182fd5b6020830191508360208260051b850101111561288957600080fd5b9250929050565b803580151581146118c157600080fd5b6000602082840312156128b1578081fd5b611b518261282f565b600080604083850312156128cc578081fd5b6128d58361282f565b91506128e36020840161282f565b90509250929050565b600080600060608486031215612900578081fd5b6129098461282f565b92506129176020850161282f565b9150604084013590509250925092565b6000806000806080858703121561293c578081fd5b6129458561282f565b93506129536020860161282f565b925060408501359150606085013567ffffffffffffffff811115612975578182fd5b8501601f81018713612985578182fd5b612994878235602084016127b9565b91505092959194509250565b600080604083850312156129b2578182fd5b6129bb8361282f565b91506128e360208401612890565b600080604083850312156129db578182fd5b6129e48361282f565b946020939093013593505050565b60008060208385031215612a04578182fd5b823567ffffffffffffffff811115612a1a578283fd5b612a2685828601612846565b90969095509350505050565b600060208284031215612a43578081fd5b611b5182612890565b600060208284031215612a5d578081fd5b8135611b5181612cee565b600060208284031215612a79578081fd5b8151611b5181612cee565b600060208284031215612a95578081fd5b813567ffffffffffffffff811115612aab578182fd5b8201601f81018413612abb578182fd5b611df4848235602084016127b9565b600060208284031215612adb578081fd5b5035919050565b60008151808452612afa816020860160208601612c16565b601f01601f19169290920160200192915050565b60008351612b20818460208801612c16565b835190830190612b34818360208801612c16565b7f2e6a736f6e0000000000000000000000000000000000000000000000000000009101908152600501949350505050565b60006001600160a01b03808716835280861660208401525083604083015260806060830152612b976080830184612ae2565b9695505050505050565b602081526000611b516020830184612ae2565b60008219821115612bc757612bc7612cac565b500190565b600082612bdb57612bdb612cc2565b500490565b6000816000190483118215151615612bfa57612bfa612cac565b500290565b600082821015612c1157612c11612cac565b500390565b60005b83811015612c31578181015183820152602001612c19565b83811115611af45750506000910152565b600181811c90821680612c5657607f821691505b60208210811415612c7757634e487b7160e01b600052602260045260246000fd5b50919050565b6000600019821415612c9157612c91612cac565b5060010190565b600082612ca757612ca7612cc2565b500690565b634e487b7160e01b600052601160045260246000fd5b634e487b7160e01b600052601260045260246000fd5b634e487b7160e01b600052604160045260246000fd5b6001600160e01b031981168114611c2557600080fdfe4f776e61626c653a2063616c6c6572206973206e6f7420746865206f776e6572a26469706673582212204af3abf03a5fdfe012deadd09ec66b857b645d604b71db8d74f3cf73b5f56a3264736f6c63430008040033",
  "linkReferences": {},
  "deployedLinkReferences": {}
}